{
  "_format": "hh-sol-artifact-1",
  "contractName": "GameItems",
  "sourceName": "contracts/GameNFTs/GameItems.sol",
  "abi": [
    {
      "inputs": [],
      "stateMutability": "nonpayable",
      "type": "constructor"
    },
    {
      "inputs": [],
      "name": "ApprovalCallerNotOwnerNorApproved",
      "type": "error"
    },
    {
      "inputs": [],
      "name": "ApprovalQueryForNonexistentToken",
      "type": "error"
    },
    {
      "inputs": [],
      "name": "ApprovalToCurrentOwner",
      "type": "error"
    },
    {
      "inputs": [],
      "name": "ApproveToCaller",
      "type": "error"
    },
    {
      "inputs": [],
      "name": "BalanceQueryForZeroAddress",
      "type": "error"
    },
    {
      "inputs": [],
      "name": "CallerIsNotOwner",
      "type": "error"
    },
    {
      "inputs": [],
      "name": "MintCountAndMetaDataLengthDissimilarity",
      "type": "error"
    },
    {
      "inputs": [],
      "name": "MintToZeroAddress",
      "type": "error"
    },
    {
      "inputs": [],
      "name": "MintZeroQuantity",
      "type": "error"
    },
    {
      "inputs": [],
      "name": "NoTokenExists",
      "type": "error"
    },
    {
      "inputs": [],
      "name": "OwnerQueryForNonexistentToken",
      "type": "error"
    },
    {
      "inputs": [],
      "name": "SignatureIsNotOfficial",
      "type": "error"
    },
    {
      "inputs": [],
      "name": "TransferCallerNotOwnerNorApproved",
      "type": "error"
    },
    {
      "inputs": [],
      "name": "TransferFromIncorrectOwner",
      "type": "error"
    },
    {
      "inputs": [],
      "name": "TransferToNonERC721ReceiverImplementer",
      "type": "error"
    },
    {
      "inputs": [],
      "name": "TransferToZeroAddress",
      "type": "error"
    },
    {
      "inputs": [],
      "name": "URIQueryForNonexistentToken",
      "type": "error"
    },
    {
      "anonymous": false,
      "inputs": [
        {
          "indexed": true,
          "internalType": "address",
          "name": "owner",
          "type": "address"
        },
        {
          "indexed": true,
          "internalType": "address",
          "name": "approved",
          "type": "address"
        },
        {
          "indexed": true,
          "internalType": "uint256",
          "name": "tokenId",
          "type": "uint256"
        }
      ],
      "name": "Approval",
      "type": "event"
    },
    {
      "anonymous": false,
      "inputs": [
        {
          "indexed": true,
          "internalType": "address",
          "name": "owner",
          "type": "address"
        },
        {
          "indexed": true,
          "internalType": "address",
          "name": "operator",
          "type": "address"
        },
        {
          "indexed": false,
          "internalType": "bool",
          "name": "approved",
          "type": "bool"
        }
      ],
      "name": "ApprovalForAll",
      "type": "event"
    },
    {
      "anonymous": false,
      "inputs": [
        {
          "indexed": true,
          "internalType": "address",
          "name": "previousOwner",
          "type": "address"
        },
        {
          "indexed": true,
          "internalType": "address",
          "name": "newOwner",
          "type": "address"
        }
      ],
      "name": "OwnershipTransferred",
      "type": "event"
    },
    {
      "anonymous": false,
      "inputs": [
        {
          "indexed": true,
          "internalType": "address",
          "name": "from",
          "type": "address"
        },
        {
          "indexed": true,
          "internalType": "address",
          "name": "to",
          "type": "address"
        },
        {
          "indexed": true,
          "internalType": "uint256",
          "name": "tokenId",
          "type": "uint256"
        }
      ],
      "name": "Transfer",
      "type": "event"
    },
    {
      "anonymous": false,
      "inputs": [
        {
          "indexed": true,
          "internalType": "string",
          "name": "metadata",
          "type": "string"
        },
        {
          "indexed": true,
          "internalType": "uint256",
          "name": "tokenId",
          "type": "uint256"
        }
      ],
      "name": "UpdateMetadata",
      "type": "event"
    },
    {
      "inputs": [
        {
          "internalType": "address",
          "name": "to",
          "type": "address"
        },
        {
          "internalType": "uint256",
          "name": "tokenId",
          "type": "uint256"
        }
      ],
      "name": "approve",
      "outputs": [],
      "stateMutability": "nonpayable",
      "type": "function"
    },
    {
      "inputs": [
        {
          "internalType": "address",
          "name": "owner",
          "type": "address"
        }
      ],
      "name": "balanceOf",
      "outputs": [
        {
          "internalType": "uint256",
          "name": "",
          "type": "uint256"
        }
      ],
      "stateMutability": "view",
      "type": "function"
    },
    {
      "inputs": [
        {
          "internalType": "address",
          "name": "to",
          "type": "address"
        },
        {
          "internalType": "uint256",
          "name": "quantity",
          "type": "uint256"
        },
        {
          "internalType": "string[]",
          "name": "ipfsHash",
          "type": "string[]"
        }
      ],
      "name": "devClaim",
      "outputs": [],
      "stateMutability": "nonpayable",
      "type": "function"
    },
    {
      "inputs": [
        {
          "internalType": "uint256",
          "name": "tokenId",
          "type": "uint256"
        }
      ],
      "name": "getApproved",
      "outputs": [
        {
          "internalType": "address",
          "name": "",
          "type": "address"
        }
      ],
      "stateMutability": "view",
      "type": "function"
    },
    {
      "inputs": [
        {
          "internalType": "address",
          "name": "owner",
          "type": "address"
        },
        {
          "internalType": "address",
          "name": "operator",
          "type": "address"
        }
      ],
      "name": "isApprovedForAll",
      "outputs": [
        {
          "internalType": "bool",
          "name": "",
          "type": "bool"
        }
      ],
      "stateMutability": "view",
      "type": "function"
    },
    {
      "inputs": [],
      "name": "name",
      "outputs": [
        {
          "internalType": "string",
          "name": "",
          "type": "string"
        }
      ],
      "stateMutability": "view",
      "type": "function"
    },
    {
      "inputs": [],
      "name": "owner",
      "outputs": [
        {
          "internalType": "address",
          "name": "",
          "type": "address"
        }
      ],
      "stateMutability": "view",
      "type": "function"
    },
    {
      "inputs": [
        {
          "internalType": "uint256",
          "name": "tokenId",
          "type": "uint256"
        }
      ],
      "name": "ownerOf",
      "outputs": [
        {
          "internalType": "address",
          "name": "",
          "type": "address"
        }
      ],
      "stateMutability": "view",
      "type": "function"
    },
    {
      "inputs": [],
      "name": "realOwner",
      "outputs": [
        {
          "internalType": "address",
          "name": "",
          "type": "address"
        }
      ],
      "stateMutability": "view",
      "type": "function"
    },
    {
      "inputs": [],
      "name": "renounceOwnership",
      "outputs": [],
      "stateMutability": "nonpayable",
      "type": "function"
    },
    {
      "inputs": [
        {
          "internalType": "address",
          "name": "from",
          "type": "address"
        },
        {
          "internalType": "address",
          "name": "to",
          "type": "address"
        },
        {
          "internalType": "uint256",
          "name": "tokenId",
          "type": "uint256"
        }
      ],
      "name": "safeTransferFrom",
      "outputs": [],
      "stateMutability": "nonpayable",
      "type": "function"
    },
    {
      "inputs": [
        {
          "internalType": "address",
          "name": "from",
          "type": "address"
        },
        {
          "internalType": "address",
          "name": "to",
          "type": "address"
        },
        {
          "internalType": "uint256",
          "name": "tokenId",
          "type": "uint256"
        },
        {
          "internalType": "bytes",
          "name": "_data",
          "type": "bytes"
        }
      ],
      "name": "safeTransferFrom",
      "outputs": [],
      "stateMutability": "nonpayable",
      "type": "function"
    },
    {
      "inputs": [
        {
          "internalType": "address",
          "name": "operator",
          "type": "address"
        },
        {
          "internalType": "bool",
          "name": "approved",
          "type": "bool"
        }
      ],
      "name": "setApprovalForAll",
      "outputs": [],
      "stateMutability": "nonpayable",
      "type": "function"
    },
    {
      "inputs": [
        {
          "internalType": "string",
          "name": "baseURI",
          "type": "string"
        }
      ],
      "name": "setBaseURI",
      "outputs": [],
      "stateMutability": "nonpayable",
      "type": "function"
    },
    {
      "inputs": [
        {
          "internalType": "address",
          "name": "signer",
          "type": "address"
        }
      ],
      "name": "setKey",
      "outputs": [],
      "stateMutability": "nonpayable",
      "type": "function"
    },
    {
      "inputs": [
        {
          "internalType": "string",
          "name": "_newName",
          "type": "string"
        },
        {
          "internalType": "string",
          "name": "_newSymbol",
          "type": "string"
        }
      ],
      "name": "setNameAndSymbol",
      "outputs": [],
      "stateMutability": "nonpayable",
      "type": "function"
    },
    {
      "inputs": [
        {
          "internalType": "bytes4",
          "name": "interfaceId",
          "type": "bytes4"
        }
      ],
      "name": "supportsInterface",
      "outputs": [
        {
          "internalType": "bool",
          "name": "",
          "type": "bool"
        }
      ],
      "stateMutability": "view",
      "type": "function"
    },
    {
      "inputs": [],
      "name": "symbol",
      "outputs": [
        {
          "internalType": "string",
          "name": "",
          "type": "string"
        }
      ],
      "stateMutability": "view",
      "type": "function"
    },
    {
      "inputs": [
        {
          "internalType": "uint256",
          "name": "tokenId",
          "type": "uint256"
        }
      ],
      "name": "tokenURI",
      "outputs": [
        {
          "internalType": "string",
          "name": "",
          "type": "string"
        }
      ],
      "stateMutability": "view",
      "type": "function"
    },
    {
      "inputs": [],
      "name": "totalSupply",
      "outputs": [
        {
          "internalType": "uint256",
          "name": "",
          "type": "uint256"
        }
      ],
      "stateMutability": "view",
      "type": "function"
    },
    {
      "inputs": [
        {
          "internalType": "address",
          "name": "from",
          "type": "address"
        },
        {
          "internalType": "address",
          "name": "to",
          "type": "address"
        },
        {
          "internalType": "uint256",
          "name": "tokenId",
          "type": "uint256"
        }
      ],
      "name": "transferFrom",
      "outputs": [],
      "stateMutability": "nonpayable",
      "type": "function"
    },
    {
      "inputs": [
        {
          "internalType": "address",
          "name": "newOwner",
          "type": "address"
        }
      ],
      "name": "transferLowerOwnership",
      "outputs": [],
      "stateMutability": "nonpayable",
      "type": "function"
    },
    {
      "inputs": [
        {
          "internalType": "address",
          "name": "newOwner",
          "type": "address"
        }
      ],
      "name": "transferOwnership",
      "outputs": [],
      "stateMutability": "nonpayable",
      "type": "function"
    },
    {
      "inputs": [
        {
          "internalType": "address",
          "name": "newRealOwner",
          "type": "address"
        }
      ],
      "name": "transferRealOwnership",
      "outputs": [],
      "stateMutability": "nonpayable",
      "type": "function"
    },
    {
      "inputs": [
        {
          "internalType": "uint256",
          "name": "tokenId",
          "type": "uint256"
        },
        {
          "internalType": "string",
          "name": "ipfsHash",
          "type": "string"
        },
        {
          "internalType": "bytes",
          "name": "signature",
          "type": "bytes"
        }
      ],
      "name": "updateMetadata",
      "outputs": [],
      "stateMutability": "nonpayable",
      "type": "function"
    }
  ],
  "bytecode": "0x60806040526000600c553480156200001657600080fd5b506040518060400160405280600981526020017f43686172616374657200000000000000000000000000000000000000000000008152506040518060400160405280600981526020017f636861726163746572000000000000000000000000000000000000000000000081525081600290805190602001906200009b92919062000207565b508060039080519060200190620000b492919062000207565b50620000c56200013460201b60201c565b6000819055505050620000ed620000e16200013960201b60201c565b6200014160201b60201c565b33600960006101000a81548173ffffffffffffffffffffffffffffffffffffffff021916908373ffffffffffffffffffffffffffffffffffffffff1602179055506200031c565b600090565b600033905090565b6000600860009054906101000a900473ffffffffffffffffffffffffffffffffffffffff16905081600860006101000a81548173ffffffffffffffffffffffffffffffffffffffff021916908373ffffffffffffffffffffffffffffffffffffffff1602179055508173ffffffffffffffffffffffffffffffffffffffff168173ffffffffffffffffffffffffffffffffffffffff167f8be0079c531659141344cd1fd0a4f28419497f9722a3daafe3b4186f6b6457e060405160405180910390a35050565b8280546200021590620002e6565b90600052602060002090601f01602090048101928262000239576000855562000285565b82601f106200025457805160ff191683800117855562000285565b8280016001018555821562000285579182015b828111156200028457825182559160200191906001019062000267565b5b50905062000294919062000298565b5090565b5b80821115620002b357600081600090555060010162000299565b5090565b7f4e487b7100000000000000000000000000000000000000000000000000000000600052602260045260246000fd5b60006002820490506001821680620002ff57607f821691505b60208210811415620003165762000315620002b7565b5b50919050565b613c3e806200032c6000396000f3fe608060405234801561001057600080fd5b50600436106101735760003560e01c80635a446215116100de5780639fd848f911610097578063c87b56dd11610071578063c87b56dd1461040c578063e985e9c51461043c578063f2fde38b1461046c578063fbe02eb21461048857610173565b80639fd848f9146103b8578063a22cb465146103d4578063b88d4fde146103f057610173565b80635a446215146102f65780636352211e1461031257806370a0823114610342578063715018a6146103725780638da5cb5b1461037c57806395d89b411461039a57610173565b80631df270f3116101305780631df270f31461024c57806323b872dd1461026a5780632cff67701461028657806342842e0e146102a257806355f804b3146102be57806359c52028146102da57610173565b806301ffc9a71461017857806306fdde03146101a8578063081812fc146101c6578063095ea7b3146101f657806309af3f9a1461021257806318160ddd1461022e575b600080fd5b610192600480360381019061018d9190612a76565b6104a4565b60405161019f9190612abe565b60405180910390f35b6101b0610586565b6040516101bd9190612b72565b60405180910390f35b6101e060048036038101906101db9190612bca565b61063f565b6040516101ed9190612c38565b60405180910390f35b610210600480360381019061020b9190612c7f565b6106bb565b005b61022c60048036038101906102279190612cbf565b6107c6565b005b610236610862565b6040516102439190612cfb565b60405180910390f35b610254610879565b6040516102619190612c38565b60405180910390f35b610284600480360381019061027f9190612d16565b61089f565b005b6102a0600480360381019061029b9190612cbf565b6108af565b005b6102bc60048036038101906102b79190612d16565b610983565b005b6102d860048036038101906102d39190612dce565b6109a3565b005b6102f460048036038101906102ef9190612fec565b6109c1565b005b610310600480360381019061030b9190613077565b610b9a565b005b61032c60048036038101906103279190612bca565b610c54565b6040516103399190612c38565b60405180910390f35b61035c60048036038101906103579190612cbf565b610c6a565b6040516103699190612cfb565b60405180910390f35b61037a610d3a565b005b610384610d4e565b6040516103919190612c38565b60405180910390f35b6103a2610d78565b6040516103af9190612b72565b60405180910390f35b6103d260048036038101906103cd91906131d9565b610e31565b005b6103ee60048036038101906103e99190613274565b610f12565b005b61040a600480360381019061040591906132b4565b61108a565b005b61042660048036038101906104219190612bca565b611106565b6040516104339190612b72565b60405180910390f35b61045660048036038101906104519190613337565b6111af565b6040516104639190612abe565b60405180910390f35b61048660048036038101906104819190612cbf565b611243565b005b6104a2600480360381019061049d9190612cbf565b6112c7565b005b60007f80ac58cd000000000000000000000000000000000000000000000000000000007bffffffffffffffffffffffffffffffffffffffffffffffffffffffff1916827bffffffffffffffffffffffffffffffffffffffffffffffffffffffff1916148061056f57507f5b5e139f000000000000000000000000000000000000000000000000000000007bffffffffffffffffffffffffffffffffffffffffffffffffffffffff1916827bffffffffffffffffffffffffffffffffffffffffffffffffffffffff1916145b8061057f575061057e82611313565b5b9050919050565b60606000600e8054610597906133a6565b905014156105ae576105a761137d565b905061063c565b600e80546105bb906133a6565b80601f01602080910402602001604051908101604052809291908181526020018280546105e7906133a6565b80156106345780601f1061060957610100808354040283529160200191610634565b820191906000526020600020905b81548152906001019060200180831161061757829003601f168201915b505050505090505b90565b600061064a8261140f565b610680576040517fcf4700e400000000000000000000000000000000000000000000000000000000815260040160405180910390fd5b6006600083815260200190815260200160002060009054906101000a900473ffffffffffffffffffffffffffffffffffffffff169050919050565b60006106c682610c54565b90508073ffffffffffffffffffffffffffffffffffffffff168373ffffffffffffffffffffffffffffffffffffffff16141561072e576040517f943f7b8c00000000000000000000000000000000000000000000000000000000815260040160405180910390fd5b8073ffffffffffffffffffffffffffffffffffffffff1661074d61145d565b73ffffffffffffffffffffffffffffffffffffffff161415801561077f575061077d8161077861145d565b6111af565b155b156107b6576040517fcfb3b94200000000000000000000000000000000000000000000000000000000815260040160405180910390fd5b6107c1838383611465565b505050565b3373ffffffffffffffffffffffffffffffffffffffff16600960009054906101000a900473ffffffffffffffffffffffffffffffffffffffff1673ffffffffffffffffffffffffffffffffffffffff1614610856576040517f08c379a000000000000000000000000000000000000000000000000000000000815260040161084d9061344a565b60405180910390fd5b61085f81611243565b50565b600061086c611517565b6001546000540303905090565b600960009054906101000a900473ffffffffffffffffffffffffffffffffffffffff1681565b6108aa83838361151c565b505050565b3373ffffffffffffffffffffffffffffffffffffffff16600960009054906101000a900473ffffffffffffffffffffffffffffffffffffffff1673ffffffffffffffffffffffffffffffffffffffff161461093f576040517f08c379a00000000000000000000000000000000000000000000000000000000081526004016109369061344a565b60405180910390fd5b80600960006101000a81548173ffffffffffffffffffffffffffffffffffffffff021916908373ffffffffffffffffffffffffffffffffffffffff16021790555050565b61099e8383836040518060200160405280600081525061108a565b505050565b6109ab6119d2565b8181600a91906109bc92919061289e565b505050565b6109ca8361140f565b15610b635760006109da84610c54565b905060003373ffffffffffffffffffffffffffffffffffffffff168273ffffffffffffffffffffffffffffffffffffffff161490508015610b2a576000610a218587611a50565b9050600b60009054906101000a900473ffffffffffffffffffffffffffffffffffffffff1673ffffffffffffffffffffffffffffffffffffffff16610a668583611aa9565b73ffffffffffffffffffffffffffffffffffffffff161415610af25784600d60008881526020019081526020016000209080519060200190610aa9929190612924565b508585604051610ab991906134a6565b60405180910390207f284d8f5abaec9f58a2b6b4818b13ad0c462f8b7124f1eb2fc4b3cd76c132206460405160405180910390a3610b24565b6040517f111b990500000000000000000000000000000000000000000000000000000000815260040160405180910390fd5b50610b5c565b6040517f6db2465f00000000000000000000000000000000000000000000000000000000815260040160405180910390fd5b5050610b95565b6040517f6dae3ad200000000000000000000000000000000000000000000000000000000815260040160405180910390fd5b505050565b3373ffffffffffffffffffffffffffffffffffffffff16600960009054906101000a900473ffffffffffffffffffffffffffffffffffffffff1673ffffffffffffffffffffffffffffffffffffffff1614610c2a576040517f08c379a0000000000000000000000000000000000000000000000000000000008152600401610c219061344a565b60405180910390fd5b8383600e9190610c3b92919061289e565b508181600f9190610c4d92919061289e565b5050505050565b6000610c5f82611abd565b600001519050919050565b60008073ffffffffffffffffffffffffffffffffffffffff168273ffffffffffffffffffffffffffffffffffffffff161415610cd2576040517f8f4eb60400000000000000000000000000000000000000000000000000000000815260040160405180910390fd5b600560008373ffffffffffffffffffffffffffffffffffffffff1673ffffffffffffffffffffffffffffffffffffffff16815260200190815260200160002060000160009054906101000a900467ffffffffffffffff1667ffffffffffffffff169050919050565b610d426119d2565b610d4c6000611d4c565b565b6000600860009054906101000a900473ffffffffffffffffffffffffffffffffffffffff16905090565b60606000600f8054610d89906133a6565b90501415610da057610d99611e12565b9050610e2e565b600f8054610dad906133a6565b80601f0160208091040260200160405190810160405280929190818152602001828054610dd9906133a6565b8015610e265780601f10610dfb57610100808354040283529160200191610e26565b820191906000526020600020905b815481529060010190602001808311610e0957829003601f168201915b505050505090505b90565b8051821415610edb57610e448383611ea4565b81600c6000828254610e5691906134ec565b9250508190555060005b82811015610ed557818181518110610e7b57610e7a613542565b5b6020026020010151600d60008386610e939190613571565b600c54610ea09190613571565b81526020019081526020016000209080519060200190610ec1929190612924565b508080610ecd906135a5565b915050610e60565b50610f0d565b6040517f05e2948900000000000000000000000000000000000000000000000000000000815260040160405180910390fd5b505050565b610f1a61145d565b73ffffffffffffffffffffffffffffffffffffffff168273ffffffffffffffffffffffffffffffffffffffff161415610f7f576040517fb06307db00000000000000000000000000000000000000000000000000000000815260040160405180910390fd5b8060076000610f8c61145d565b73ffffffffffffffffffffffffffffffffffffffff1673ffffffffffffffffffffffffffffffffffffffff16815260200190815260200160002060008473ffffffffffffffffffffffffffffffffffffffff1673ffffffffffffffffffffffffffffffffffffffff16815260200190815260200160002060006101000a81548160ff0219169083151502179055508173ffffffffffffffffffffffffffffffffffffffff1661103961145d565b73ffffffffffffffffffffffffffffffffffffffff167f17307eab39ab6107e8899845ad3d59bd9653f200f220920489ca2b5937696c318360405161107e9190612abe565b60405180910390a35050565b61109584848461151c565b6110b48373ffffffffffffffffffffffffffffffffffffffff16611ec4565b80156110c957506110c784848484611ee7565b155b15611100576040517fd1a57ed600000000000000000000000000000000000000000000000000000000815260040160405180910390fd5b50505050565b60606111118261140f565b611147576040517fa14c4b5000000000000000000000000000000000000000000000000000000000815260040160405180910390fd5b6000611151612047565b905060008151141561117257604051806020016040528060008152506111a7565b80600d6000858152602001908152602001600020604051602001611197929190613682565b6040516020818303038152906040525b915050919050565b6000600760008473ffffffffffffffffffffffffffffffffffffffff1673ffffffffffffffffffffffffffffffffffffffff16815260200190815260200160002060008373ffffffffffffffffffffffffffffffffffffffff1673ffffffffffffffffffffffffffffffffffffffff16815260200190815260200160002060009054906101000a900460ff16905092915050565b61124b6119d2565b600073ffffffffffffffffffffffffffffffffffffffff168173ffffffffffffffffffffffffffffffffffffffff1614156112bb576040517f08c379a00000000000000000000000000000000000000000000000000000000081526004016112b290613718565b60405180910390fd5b6112c481611d4c565b50565b6112cf6119d2565b80600b60006101000a81548173ffffffffffffffffffffffffffffffffffffffff021916908373ffffffffffffffffffffffffffffffffffffffff16021790555050565b60007f01ffc9a7000000000000000000000000000000000000000000000000000000007bffffffffffffffffffffffffffffffffffffffffffffffffffffffff1916827bffffffffffffffffffffffffffffffffffffffffffffffffffffffff1916149050919050565b60606002805461138c906133a6565b80601f01602080910402602001604051908101604052809291908181526020018280546113b8906133a6565b80156114055780601f106113da57610100808354040283529160200191611405565b820191906000526020600020905b8154815290600101906020018083116113e857829003601f168201915b5050505050905090565b60008161141a611517565b11158015611429575060005482105b8015611456575060046000838152602001908152602001600020600001601c9054906101000a900460ff16155b9050919050565b600033905090565b826006600084815260200190815260200160002060006101000a81548173ffffffffffffffffffffffffffffffffffffffff021916908373ffffffffffffffffffffffffffffffffffffffff160217905550818373ffffffffffffffffffffffffffffffffffffffff168273ffffffffffffffffffffffffffffffffffffffff167f8c5be1e5ebec7d5bd14f71427d1e84f3dd0314c0f7b2291e5b200ac8c7c3b92560405160405180910390a4505050565b600090565b600061152782611abd565b90508373ffffffffffffffffffffffffffffffffffffffff16816000015173ffffffffffffffffffffffffffffffffffffffff1614611592576040517fa114810000000000000000000000000000000000000000000000000000000000815260040160405180910390fd5b60008473ffffffffffffffffffffffffffffffffffffffff166115b361145d565b73ffffffffffffffffffffffffffffffffffffffff1614806115e257506115e1856115dc61145d565b6111af565b5b8061162757506115f061145d565b73ffffffffffffffffffffffffffffffffffffffff1661160f8461063f565b73ffffffffffffffffffffffffffffffffffffffff16145b905080611660576040517f59c896be00000000000000000000000000000000000000000000000000000000815260040160405180910390fd5b600073ffffffffffffffffffffffffffffffffffffffff168473ffffffffffffffffffffffffffffffffffffffff1614156116c7576040517fea553b3400000000000000000000000000000000000000000000000000000000815260040160405180910390fd5b6116d485858560016120d9565b6116e060008487611465565b6001600560008773ffffffffffffffffffffffffffffffffffffffff1673ffffffffffffffffffffffffffffffffffffffff16815260200190815260200160002060000160008282829054906101000a900467ffffffffffffffff160392506101000a81548167ffffffffffffffff021916908367ffffffffffffffff1602179055506001600560008673ffffffffffffffffffffffffffffffffffffffff1673ffffffffffffffffffffffffffffffffffffffff16815260200190815260200160002060000160008282829054906101000a900467ffffffffffffffff160192506101000a81548167ffffffffffffffff021916908367ffffffffffffffff1602179055506000600460008581526020019081526020016000209050848160000160006101000a81548173ffffffffffffffffffffffffffffffffffffffff021916908373ffffffffffffffffffffffffffffffffffffffff160217905550428160000160146101000a81548167ffffffffffffffff021916908367ffffffffffffffff16021790555060006001850190506000600460008381526020019081526020016000209050600073ffffffffffffffffffffffffffffffffffffffff168160000160009054906101000a900473ffffffffffffffffffffffffffffffffffffffff1673ffffffffffffffffffffffffffffffffffffffff16141561196057600054821461195f57878160000160006101000a81548173ffffffffffffffffffffffffffffffffffffffff021916908373ffffffffffffffffffffffffffffffffffffffff16021790555084602001518160000160146101000a81548167ffffffffffffffff021916908367ffffffffffffffff1602179055505b5b505050828473ffffffffffffffffffffffffffffffffffffffff168673ffffffffffffffffffffffffffffffffffffffff167fddf252ad1be2c89b69c2b068fc378daa952ba7f163c4a11628f55a4df523b3ef60405160405180910390a46119cb85858560016120df565b5050505050565b6119da61145d565b73ffffffffffffffffffffffffffffffffffffffff166119f8610d4e565b73ffffffffffffffffffffffffffffffffffffffff1614611a4e576040517f08c379a0000000000000000000000000000000000000000000000000000000008152600401611a4590613784565b60405180910390fd5b565b60008282604051602001611a659291906137c5565b60405160208183030381529060405280519060200120604051602001611a8b9190613864565b60405160208183030381529060405280519060200120905092915050565b6000611ab582846120e5565b905092915050565b611ac56129aa565b600082905080611ad3611517565b11158015611ae2575060005481105b15611d15576000600460008381526020019081526020016000206040518060600160405290816000820160009054906101000a900473ffffffffffffffffffffffffffffffffffffffff1673ffffffffffffffffffffffffffffffffffffffff1673ffffffffffffffffffffffffffffffffffffffff1681526020016000820160149054906101000a900467ffffffffffffffff1667ffffffffffffffff1667ffffffffffffffff16815260200160008201601c9054906101000a900460ff16151515158152505090508060400151611d1357600073ffffffffffffffffffffffffffffffffffffffff16816000015173ffffffffffffffffffffffffffffffffffffffff1614611bf7578092505050611d47565b5b600115611d1257818060019003925050600460008381526020019081526020016000206040518060600160405290816000820160009054906101000a900473ffffffffffffffffffffffffffffffffffffffff1673ffffffffffffffffffffffffffffffffffffffff1673ffffffffffffffffffffffffffffffffffffffff1681526020016000820160149054906101000a900467ffffffffffffffff1667ffffffffffffffff1667ffffffffffffffff16815260200160008201601c9054906101000a900460ff1615151515815250509050600073ffffffffffffffffffffffffffffffffffffffff16816000015173ffffffffffffffffffffffffffffffffffffffff1614611d0d578092505050611d47565b611bf8565b5b505b6040517fdf2d9b4200000000000000000000000000000000000000000000000000000000815260040160405180910390fd5b919050565b6000600860009054906101000a900473ffffffffffffffffffffffffffffffffffffffff16905081600860006101000a81548173ffffffffffffffffffffffffffffffffffffffff021916908373ffffffffffffffffffffffffffffffffffffffff1602179055508173ffffffffffffffffffffffffffffffffffffffff168173ffffffffffffffffffffffffffffffffffffffff167f8be0079c531659141344cd1fd0a4f28419497f9722a3daafe3b4186f6b6457e060405160405180910390a35050565b606060038054611e21906133a6565b80601f0160208091040260200160405190810160405280929190818152602001828054611e4d906133a6565b8015611e9a5780601f10611e6f57610100808354040283529160200191611e9a565b820191906000526020600020905b815481529060010190602001808311611e7d57829003601f168201915b5050505050905090565b611ec0828260405180602001604052806000815250600161210c565b5050565b6000808273ffffffffffffffffffffffffffffffffffffffff163b119050919050565b60008373ffffffffffffffffffffffffffffffffffffffff1663150b7a02611f0d61145d565b8786866040518563ffffffff1660e01b8152600401611f2f94939291906138df565b602060405180830381600087803b158015611f4957600080fd5b505af1925050508015611f7a57506040513d601f19601f82011682018060405250810190611f779190613940565b60015b611ff4573d8060008114611faa576040519150601f19603f3d011682016040523d82523d6000602084013e611faf565b606091505b50600081511415611fec576040517fd1a57ed600000000000000000000000000000000000000000000000000000000815260040160405180910390fd5b805181602001fd5b63150b7a0260e01b7bffffffffffffffffffffffffffffffffffffffffffffffffffffffff1916817bffffffffffffffffffffffffffffffffffffffffffffffffffffffff191614915050949350505050565b6060600a8054612056906133a6565b80601f0160208091040260200160405190810160405280929190818152602001828054612082906133a6565b80156120cf5780601f106120a4576101008083540402835291602001916120cf565b820191906000526020600020905b8154815290600101906020018083116120b257829003601f168201915b5050505050905090565b50505050565b50505050565b60008060006120f485856124da565b915091506121018161255d565b819250505092915050565b600080549050600073ffffffffffffffffffffffffffffffffffffffff168573ffffffffffffffffffffffffffffffffffffffff161415612179576040517f2e07630000000000000000000000000000000000000000000000000000000000815260040160405180910390fd5b60008414156121b4576040517fb562e8dd00000000000000000000000000000000000000000000000000000000815260040160405180910390fd5b6121c160008683876120d9565b83600560008773ffffffffffffffffffffffffffffffffffffffff1673ffffffffffffffffffffffffffffffffffffffff16815260200190815260200160002060000160008282829054906101000a900467ffffffffffffffff160192506101000a81548167ffffffffffffffff021916908367ffffffffffffffff16021790555083600560008773ffffffffffffffffffffffffffffffffffffffff1673ffffffffffffffffffffffffffffffffffffffff16815260200190815260200160002060000160088282829054906101000a900467ffffffffffffffff160192506101000a81548167ffffffffffffffff021916908367ffffffffffffffff160217905550846004600083815260200190815260200160002060000160006101000a81548173ffffffffffffffffffffffffffffffffffffffff021916908373ffffffffffffffffffffffffffffffffffffffff160217905550426004600083815260200190815260200160002060000160146101000a81548167ffffffffffffffff021916908367ffffffffffffffff16021790555060008190506000858201905083801561238b575061238a8773ffffffffffffffffffffffffffffffffffffffff16611ec4565b5b15612451575b818773ffffffffffffffffffffffffffffffffffffffff16600073ffffffffffffffffffffffffffffffffffffffff167fddf252ad1be2c89b69c2b068fc378daa952ba7f163c4a11628f55a4df523b3ef60405160405180910390a46124006000888480600101955088611ee7565b612436576040517fd1a57ed600000000000000000000000000000000000000000000000000000000815260040160405180910390fd5b8082141561239157826000541461244c57600080fd5b6124bd565b5b818060010192508773ffffffffffffffffffffffffffffffffffffffff16600073ffffffffffffffffffffffffffffffffffffffff167fddf252ad1be2c89b69c2b068fc378daa952ba7f163c4a11628f55a4df523b3ef60405160405180910390a480821415612452575b8160008190555050506124d360008683876120df565b5050505050565b60008060418351141561251c5760008060006020860151925060408601519150606086015160001a905061251087828585612732565b94509450505050612556565b60408351141561254d57600080602085015191506040850151905061254286838361283f565b935093505050612556565b60006002915091505b9250929050565b600060048111156125715761257061396d565b5b8160048111156125845761258361396d565b5b141561258f5761272f565b600160048111156125a3576125a261396d565b5b8160048111156125b6576125b561396d565b5b14156125f7576040517f08c379a00000000000000000000000000000000000000000000000000000000081526004016125ee906139e8565b60405180910390fd5b6002600481111561260b5761260a61396d565b5b81600481111561261e5761261d61396d565b5b141561265f576040517f08c379a000000000000000000000000000000000000000000000000000000000815260040161265690613a54565b60405180910390fd5b600360048111156126735761267261396d565b5b8160048111156126865761268561396d565b5b14156126c7576040517f08c379a00000000000000000000000000000000000000000000000000000000081526004016126be90613ae6565b60405180910390fd5b6004808111156126da576126d961396d565b5b8160048111156126ed576126ec61396d565b5b141561272e576040517f08c379a000000000000000000000000000000000000000000000000000000000815260040161272590613b78565b60405180910390fd5b5b50565b6000807f7fffffffffffffffffffffffffffffff5d576e7357a4501ddfe92f46681b20a08360001c111561276d576000600391509150612836565b601b8560ff16141580156127855750601c8560ff1614155b15612797576000600491509150612836565b6000600187878787604051600081526020016040526040516127bc9493929190613bc3565b6020604051602081039080840390855afa1580156127de573d6000803e3d6000fd5b505050602060405103519050600073ffffffffffffffffffffffffffffffffffffffff168173ffffffffffffffffffffffffffffffffffffffff16141561282d57600060019250925050612836565b80600092509250505b94509492505050565b60008060007f7fffffffffffffffffffffffffffffffffffffffffffffffffffffffffffffff60001b841690506000601b60ff8660001c901c61288291906134ec565b905061289087828885612732565b935093505050935093915050565b8280546128aa906133a6565b90600052602060002090601f0160209004810192826128cc5760008555612913565b82601f106128e557803560ff1916838001178555612913565b82800160010185558215612913579182015b828111156129125782358255916020019190600101906128f7565b5b50905061292091906129ed565b5090565b828054612930906133a6565b90600052602060002090601f0160209004810192826129525760008555612999565b82601f1061296b57805160ff1916838001178555612999565b82800160010185558215612999579182015b8281111561299857825182559160200191906001019061297d565b5b5090506129a691906129ed565b5090565b6040518060600160405280600073ffffffffffffffffffffffffffffffffffffffff168152602001600067ffffffffffffffff1681526020016000151581525090565b5b80821115612a065760008160009055506001016129ee565b5090565b6000604051905090565b600080fd5b600080fd5b60007fffffffff0000000000000000000000000000000000000000000000000000000082169050919050565b612a5381612a1e565b8114612a5e57600080fd5b50565b600081359050612a7081612a4a565b92915050565b600060208284031215612a8c57612a8b612a14565b5b6000612a9a84828501612a61565b91505092915050565b60008115159050919050565b612ab881612aa3565b82525050565b6000602082019050612ad36000830184612aaf565b92915050565b600081519050919050565b600082825260208201905092915050565b60005b83811015612b13578082015181840152602081019050612af8565b83811115612b22576000848401525b50505050565b6000601f19601f8301169050919050565b6000612b4482612ad9565b612b4e8185612ae4565b9350612b5e818560208601612af5565b612b6781612b28565b840191505092915050565b60006020820190508181036000830152612b8c8184612b39565b905092915050565b6000819050919050565b612ba781612b94565b8114612bb257600080fd5b50565b600081359050612bc481612b9e565b92915050565b600060208284031215612be057612bdf612a14565b5b6000612bee84828501612bb5565b91505092915050565b600073ffffffffffffffffffffffffffffffffffffffff82169050919050565b6000612c2282612bf7565b9050919050565b612c3281612c17565b82525050565b6000602082019050612c4d6000830184612c29565b92915050565b612c5c81612c17565b8114612c6757600080fd5b50565b600081359050612c7981612c53565b92915050565b60008060408385031215612c9657612c95612a14565b5b6000612ca485828601612c6a565b9250506020612cb585828601612bb5565b9150509250929050565b600060208284031215612cd557612cd4612a14565b5b6000612ce384828501612c6a565b91505092915050565b612cf581612b94565b82525050565b6000602082019050612d106000830184612cec565b92915050565b600080600060608486031215612d2f57612d2e612a14565b5b6000612d3d86828701612c6a565b9350506020612d4e86828701612c6a565b9250506040612d5f86828701612bb5565b9150509250925092565b600080fd5b600080fd5b600080fd5b60008083601f840112612d8e57612d8d612d69565b5b8235905067ffffffffffffffff811115612dab57612daa612d6e565b5b602083019150836001820283011115612dc757612dc6612d73565b5b9250929050565b60008060208385031215612de557612de4612a14565b5b600083013567ffffffffffffffff811115612e0357612e02612a19565b5b612e0f85828601612d78565b92509250509250929050565b600080fd5b7f4e487b7100000000000000000000000000000000000000000000000000000000600052604160045260246000fd5b612e5882612b28565b810181811067ffffffffffffffff82111715612e7757612e76612e20565b5b80604052505050565b6000612e8a612a0a565b9050612e968282612e4f565b919050565b600067ffffffffffffffff821115612eb657612eb5612e20565b5b612ebf82612b28565b9050602081019050919050565b82818337600083830152505050565b6000612eee612ee984612e9b565b612e80565b905082815260208101848484011115612f0a57612f09612e1b565b5b612f15848285612ecc565b509392505050565b600082601f830112612f3257612f31612d69565b5b8135612f42848260208601612edb565b91505092915050565b600067ffffffffffffffff821115612f6657612f65612e20565b5b612f6f82612b28565b9050602081019050919050565b6000612f8f612f8a84612f4b565b612e80565b905082815260208101848484011115612fab57612faa612e1b565b5b612fb6848285612ecc565b509392505050565b600082601f830112612fd357612fd2612d69565b5b8135612fe3848260208601612f7c565b91505092915050565b60008060006060848603121561300557613004612a14565b5b600061301386828701612bb5565b935050602084013567ffffffffffffffff81111561303457613033612a19565b5b61304086828701612f1d565b925050604084013567ffffffffffffffff81111561306157613060612a19565b5b61306d86828701612fbe565b9150509250925092565b6000806000806040858703121561309157613090612a14565b5b600085013567ffffffffffffffff8111156130af576130ae612a19565b5b6130bb87828801612d78565b9450945050602085013567ffffffffffffffff8111156130de576130dd612a19565b5b6130ea87828801612d78565b925092505092959194509250565b600067ffffffffffffffff82111561311357613112612e20565b5b602082029050602081019050919050565b6000613137613132846130f8565b612e80565b9050808382526020820190506020840283018581111561315a57613159612d73565b5b835b818110156131a157803567ffffffffffffffff81111561317f5761317e612d69565b5b80860161318c8982612f1d565b8552602085019450505060208101905061315c565b5050509392505050565b600082601f8301126131c0576131bf612d69565b5b81356131d0848260208601613124565b91505092915050565b6000806000606084860312156131f2576131f1612a14565b5b600061320086828701612c6a565b935050602061321186828701612bb5565b925050604084013567ffffffffffffffff81111561323257613231612a19565b5b61323e868287016131ab565b9150509250925092565b61325181612aa3565b811461325c57600080fd5b50565b60008135905061326e81613248565b92915050565b6000806040838503121561328b5761328a612a14565b5b600061329985828601612c6a565b92505060206132aa8582860161325f565b9150509250929050565b600080600080608085870312156132ce576132cd612a14565b5b60006132dc87828801612c6a565b94505060206132ed87828801612c6a565b93505060406132fe87828801612bb5565b925050606085013567ffffffffffffffff81111561331f5761331e612a19565b5b61332b87828801612fbe565b91505092959194509250565b6000806040838503121561334e5761334d612a14565b5b600061335c85828601612c6a565b925050602061336d85828601612c6a565b9150509250929050565b7f4e487b7100000000000000000000000000000000000000000000000000000000600052602260045260246000fd5b600060028204905060018216806133be57607f821691505b602082108114156133d2576133d1613377565b5b50919050565b7f4d756c74697369674f776e61626c653a2063616c6c6572206973206e6f74207460008201527f6865207265616c206f776e657200000000000000000000000000000000000000602082015250565b6000613434602d83612ae4565b915061343f826133d8565b604082019050919050565b6000602082019050818103600083015261346381613427565b9050919050565b600081905092915050565b600061348082612ad9565b61348a818561346a565b935061349a818560208601612af5565b80840191505092915050565b60006134b28284613475565b915081905092915050565b7f4e487b7100000000000000000000000000000000000000000000000000000000600052601160045260246000fd5b60006134f782612b94565b915061350283612b94565b9250827fffffffffffffffffffffffffffffffffffffffffffffffffffffffffffffffff03821115613537576135366134bd565b5b828201905092915050565b7f4e487b7100000000000000000000000000000000000000000000000000000000600052603260045260246000fd5b600061357c82612b94565b915061358783612b94565b92508282101561359a576135996134bd565b5b828203905092915050565b60006135b082612b94565b91507fffffffffffffffffffffffffffffffffffffffffffffffffffffffffffffffff8214156135e3576135e26134bd565b5b600182019050919050565b60008190508160005260206000209050919050565b60008154613610816133a6565b61361a818661346a565b94506001821660008114613635576001811461364657613679565b60ff19831686528186019350613679565b61364f856135ee565b60005b8381101561367157815481890152600182019150602081019050613652565b838801955050505b50505092915050565b600061368e8285613475565b915061369a8284613603565b91508190509392505050565b7f4f776e61626c653a206e6577206f776e657220697320746865207a65726f206160008201527f6464726573730000000000000000000000000000000000000000000000000000602082015250565b6000613702602683612ae4565b915061370d826136a6565b604082019050919050565b60006020820190508181036000830152613731816136f5565b9050919050565b7f4f776e61626c653a2063616c6c6572206973206e6f7420746865206f776e6572600082015250565b600061376e602083612ae4565b915061377982613738565b602082019050919050565b6000602082019050818103600083015261379d81613761565b9050919050565b6000819050919050565b6137bf6137ba82612b94565b6137a4565b82525050565b60006137d18285613475565b91506137dd82846137ae565b6020820191508190509392505050565b7f19457468657265756d205369676e6564204d6573736167653a0a333200000000600082015250565b6000613823601c8361346a565b915061382e826137ed565b601c82019050919050565b6000819050919050565b6000819050919050565b61385e61385982613839565b613843565b82525050565b600061386f82613816565b915061387b828461384d565b60208201915081905092915050565b600081519050919050565b600082825260208201905092915050565b60006138b18261388a565b6138bb8185613895565b93506138cb818560208601612af5565b6138d481612b28565b840191505092915050565b60006080820190506138f46000830187612c29565b6139016020830186612c29565b61390e6040830185612cec565b818103606083015261392081846138a6565b905095945050505050565b60008151905061393a81612a4a565b92915050565b60006020828403121561395657613955612a14565b5b60006139648482850161392b565b91505092915050565b7f4e487b7100000000000000000000000000000000000000000000000000000000600052602160045260246000fd5b7f45434453413a20696e76616c6964207369676e61747572650000000000000000600082015250565b60006139d2601883612ae4565b91506139dd8261399c565b602082019050919050565b60006020820190508181036000830152613a01816139c5565b9050919050565b7f45434453413a20696e76616c6964207369676e6174757265206c656e67746800600082015250565b6000613a3e601f83612ae4565b9150613a4982613a08565b602082019050919050565b60006020820190508181036000830152613a6d81613a31565b9050919050565b7f45434453413a20696e76616c6964207369676e6174757265202773272076616c60008201527f7565000000000000000000000000000000000000000000000000000000000000602082015250565b6000613ad0602283612ae4565b9150613adb82613a74565b604082019050919050565b60006020820190508181036000830152613aff81613ac3565b9050919050565b7f45434453413a20696e76616c6964207369676e6174757265202776272076616c60008201527f7565000000000000000000000000000000000000000000000000000000000000602082015250565b6000613b62602283612ae4565b9150613b6d82613b06565b604082019050919050565b60006020820190508181036000830152613b9181613b55565b9050919050565b613ba181613839565b82525050565b600060ff82169050919050565b613bbd81613ba7565b82525050565b6000608082019050613bd86000830187613b98565b613be56020830186613bb4565b613bf26040830185613b98565b613bff6060830184613b98565b9594505050505056fea264697066735822122079caf2dc40b3751009475f8a6f0cf1a81ca7b4312770ba87cb912d65b0f1733264736f6c63430008090033",
  "linkReferences": {},
  "deployedLinkReferences": {}
}