{
  "_format": "hh-sol-artifact-1",
  "contractName": "GoldToken",
  "sourceName": "contracts/GoldCoin/GoldToken.sol",
  "abi": [
    {
      "inputs": [
        {
          "internalType": "string",
          "name": "name",
          "type": "string"
        },
        {
          "internalType": "string",
          "name": "symbol",
          "type": "string"
        }
      ],
      "stateMutability": "nonpayable",
      "type": "constructor"
    },
    {
      "anonymous": false,
      "inputs": [
        {
          "indexed": true,
          "internalType": "address",
          "name": "owner",
          "type": "address"
        },
        {
          "indexed": true,
          "internalType": "address",
          "name": "spender",
          "type": "address"
        },
        {
          "indexed": false,
          "internalType": "uint256",
          "name": "value",
          "type": "uint256"
        }
      ],
      "name": "Approval",
      "type": "event"
    },
    {
      "anonymous": false,
      "inputs": [
        {
          "indexed": true,
          "internalType": "address",
          "name": "previousOwner",
          "type": "address"
        },
        {
          "indexed": true,
          "internalType": "address",
          "name": "newOwner",
          "type": "address"
        }
      ],
      "name": "OwnershipTransferred",
      "type": "event"
    },
    {
      "anonymous": false,
      "inputs": [
        {
          "indexed": true,
          "internalType": "bytes32",
          "name": "role",
          "type": "bytes32"
        },
        {
          "indexed": true,
          "internalType": "bytes32",
          "name": "previousAdminRole",
          "type": "bytes32"
        },
        {
          "indexed": true,
          "internalType": "bytes32",
          "name": "newAdminRole",
          "type": "bytes32"
        }
      ],
      "name": "RoleAdminChanged",
      "type": "event"
    },
    {
      "anonymous": false,
      "inputs": [
        {
          "indexed": true,
          "internalType": "bytes32",
          "name": "role",
          "type": "bytes32"
        },
        {
          "indexed": true,
          "internalType": "address",
          "name": "account",
          "type": "address"
        },
        {
          "indexed": true,
          "internalType": "address",
          "name": "sender",
          "type": "address"
        }
      ],
      "name": "RoleGranted",
      "type": "event"
    },
    {
      "anonymous": false,
      "inputs": [
        {
          "indexed": true,
          "internalType": "bytes32",
          "name": "role",
          "type": "bytes32"
        },
        {
          "indexed": true,
          "internalType": "address",
          "name": "account",
          "type": "address"
        },
        {
          "indexed": true,
          "internalType": "address",
          "name": "sender",
          "type": "address"
        }
      ],
      "name": "RoleRevoked",
      "type": "event"
    },
    {
      "anonymous": false,
      "inputs": [
        {
          "indexed": true,
          "internalType": "address",
          "name": "from",
          "type": "address"
        },
        {
          "indexed": true,
          "internalType": "address",
          "name": "to",
          "type": "address"
        },
        {
          "indexed": false,
          "internalType": "uint256",
          "name": "value",
          "type": "uint256"
        }
      ],
      "name": "Transfer",
      "type": "event"
    },
    {
      "inputs": [],
      "name": "ADMIN_ROLE",
      "outputs": [
        {
          "internalType": "bytes32",
          "name": "",
          "type": "bytes32"
        }
      ],
      "stateMutability": "view",
      "type": "function"
    },
    {
      "inputs": [],
      "name": "DEFAULT_ADMIN_ROLE",
      "outputs": [
        {
          "internalType": "bytes32",
          "name": "",
          "type": "bytes32"
        }
      ],
      "stateMutability": "view",
      "type": "function"
    },
    {
      "inputs": [],
      "name": "DOMAIN_SEPARATOR",
      "outputs": [
        {
          "internalType": "bytes32",
          "name": "",
          "type": "bytes32"
        }
      ],
      "stateMutability": "view",
      "type": "function"
    },
    {
      "inputs": [],
      "name": "MINTER_ROLE",
      "outputs": [
        {
          "internalType": "bytes32",
          "name": "",
          "type": "bytes32"
        }
      ],
      "stateMutability": "view",
      "type": "function"
    },
    {
      "inputs": [
        {
          "internalType": "address",
          "name": "owner",
          "type": "address"
        },
        {
          "internalType": "address",
          "name": "spender",
          "type": "address"
        }
      ],
      "name": "allowance",
      "outputs": [
        {
          "internalType": "uint256",
          "name": "",
          "type": "uint256"
        }
      ],
      "stateMutability": "view",
      "type": "function"
    },
    {
      "inputs": [
        {
          "internalType": "address",
          "name": "spender",
          "type": "address"
        },
        {
          "internalType": "uint256",
          "name": "amount",
          "type": "uint256"
        }
      ],
      "name": "approve",
      "outputs": [
        {
          "internalType": "bool",
          "name": "",
          "type": "bool"
        }
      ],
      "stateMutability": "nonpayable",
      "type": "function"
    },
    {
      "inputs": [
        {
          "internalType": "address",
          "name": "account",
          "type": "address"
        }
      ],
      "name": "balanceOf",
      "outputs": [
        {
          "internalType": "uint256",
          "name": "",
          "type": "uint256"
        }
      ],
      "stateMutability": "view",
      "type": "function"
    },
    {
      "inputs": [],
      "name": "blockId",
      "outputs": [
        {
          "internalType": "uint256",
          "name": "",
          "type": "uint256"
        }
      ],
      "stateMutability": "view",
      "type": "function"
    },
    {
      "inputs": [],
      "name": "decimals",
      "outputs": [
        {
          "internalType": "uint8",
          "name": "",
          "type": "uint8"
        }
      ],
      "stateMutability": "view",
      "type": "function"
    },
    {
      "inputs": [
        {
          "internalType": "address",
          "name": "spender",
          "type": "address"
        },
        {
          "internalType": "uint256",
          "name": "subtractedValue",
          "type": "uint256"
        }
      ],
      "name": "decreaseAllowance",
      "outputs": [
        {
          "internalType": "bool",
          "name": "",
          "type": "bool"
        }
      ],
      "stateMutability": "nonpayable",
      "type": "function"
    },
    {
      "inputs": [
        {
          "internalType": "bytes32",
          "name": "role",
          "type": "bytes32"
        }
      ],
      "name": "getRoleAdmin",
      "outputs": [
        {
          "internalType": "bytes32",
          "name": "",
          "type": "bytes32"
        }
      ],
      "stateMutability": "view",
      "type": "function"
    },
    {
      "inputs": [
        {
          "internalType": "bytes32",
          "name": "role",
          "type": "bytes32"
        },
        {
          "internalType": "address",
          "name": "account",
          "type": "address"
        }
      ],
      "name": "grantRole",
      "outputs": [],
      "stateMutability": "nonpayable",
      "type": "function"
    },
    {
      "inputs": [
        {
          "internalType": "bytes32",
          "name": "role",
          "type": "bytes32"
        },
        {
          "internalType": "address",
          "name": "account",
          "type": "address"
        }
      ],
      "name": "hasRole",
      "outputs": [
        {
          "internalType": "bool",
          "name": "",
          "type": "bool"
        }
      ],
      "stateMutability": "view",
      "type": "function"
    },
    {
      "inputs": [
        {
          "internalType": "address",
          "name": "spender",
          "type": "address"
        },
        {
          "internalType": "uint256",
          "name": "addedValue",
          "type": "uint256"
        }
      ],
      "name": "increaseAllowance",
      "outputs": [
        {
          "internalType": "bool",
          "name": "",
          "type": "bool"
        }
      ],
      "stateMutability": "nonpayable",
      "type": "function"
    },
    {
      "inputs": [
        {
          "internalType": "uint256",
          "name": "counts",
          "type": "uint256"
        }
      ],
      "name": "mint",
      "outputs": [],
      "stateMutability": "nonpayable",
      "type": "function"
    },
    {
      "inputs": [],
      "name": "name",
      "outputs": [
        {
          "internalType": "string",
          "name": "",
          "type": "string"
        }
      ],
      "stateMutability": "view",
      "type": "function"
    },
    {
      "inputs": [
        {
          "internalType": "address",
          "name": "owner",
          "type": "address"
        }
      ],
      "name": "nonces",
      "outputs": [
        {
          "internalType": "uint256",
          "name": "",
          "type": "uint256"
        }
      ],
      "stateMutability": "view",
      "type": "function"
    },
    {
      "inputs": [],
      "name": "owner",
      "outputs": [
        {
          "internalType": "address",
          "name": "",
          "type": "address"
        }
      ],
      "stateMutability": "view",
      "type": "function"
    },
    {
      "inputs": [
        {
          "internalType": "address",
          "name": "owner",
          "type": "address"
        },
        {
          "internalType": "address",
          "name": "spender",
          "type": "address"
        },
        {
          "internalType": "uint256",
          "name": "value",
          "type": "uint256"
        },
        {
          "internalType": "uint256",
          "name": "deadline",
          "type": "uint256"
        },
        {
          "internalType": "uint8",
          "name": "v",
          "type": "uint8"
        },
        {
          "internalType": "bytes32",
          "name": "r",
          "type": "bytes32"
        },
        {
          "internalType": "bytes32",
          "name": "s",
          "type": "bytes32"
        }
      ],
      "name": "permit",
      "outputs": [],
      "stateMutability": "nonpayable",
      "type": "function"
    },
    {
      "inputs": [],
      "name": "renounceOwnership",
      "outputs": [],
      "stateMutability": "nonpayable",
      "type": "function"
    },
    {
      "inputs": [
        {
          "internalType": "bytes32",
          "name": "role",
          "type": "bytes32"
        },
        {
          "internalType": "address",
          "name": "account",
          "type": "address"
        }
      ],
      "name": "renounceRole",
      "outputs": [],
      "stateMutability": "nonpayable",
      "type": "function"
    },
    {
      "inputs": [
        {
          "internalType": "bytes32",
          "name": "role",
          "type": "bytes32"
        },
        {
          "internalType": "address",
          "name": "account",
          "type": "address"
        }
      ],
      "name": "revokeRole",
      "outputs": [],
      "stateMutability": "nonpayable",
      "type": "function"
    },
    {
      "inputs": [
        {
          "internalType": "address",
          "name": "admin",
          "type": "address"
        }
      ],
      "name": "setMintRoleAdmin",
      "outputs": [],
      "stateMutability": "nonpayable",
      "type": "function"
    },
    {
      "inputs": [
        {
          "internalType": "bytes4",
          "name": "interfaceId",
          "type": "bytes4"
        }
      ],
      "name": "supportsInterface",
      "outputs": [
        {
          "internalType": "bool",
          "name": "",
          "type": "bool"
        }
      ],
      "stateMutability": "view",
      "type": "function"
    },
    {
      "inputs": [],
      "name": "symbol",
      "outputs": [
        {
          "internalType": "string",
          "name": "",
          "type": "string"
        }
      ],
      "stateMutability": "view",
      "type": "function"
    },
    {
      "inputs": [],
      "name": "totalSupply",
      "outputs": [
        {
          "internalType": "uint256",
          "name": "",
          "type": "uint256"
        }
      ],
      "stateMutability": "view",
      "type": "function"
    },
    {
      "inputs": [
        {
          "internalType": "address",
          "name": "to",
          "type": "address"
        },
        {
          "internalType": "uint256",
          "name": "amount",
          "type": "uint256"
        }
      ],
      "name": "transfer",
      "outputs": [
        {
          "internalType": "bool",
          "name": "",
          "type": "bool"
        }
      ],
      "stateMutability": "nonpayable",
      "type": "function"
    },
    {
      "inputs": [
        {
          "internalType": "address",
          "name": "from",
          "type": "address"
        },
        {
          "internalType": "address",
          "name": "to",
          "type": "address"
        },
        {
          "internalType": "uint256",
          "name": "amount",
          "type": "uint256"
        }
      ],
      "name": "transferFrom",
      "outputs": [
        {
          "internalType": "bool",
          "name": "",
          "type": "bool"
        }
      ],
      "stateMutability": "nonpayable",
      "type": "function"
    },
    {
      "inputs": [
        {
          "internalType": "address",
          "name": "newOwner",
          "type": "address"
        }
      ],
      "name": "transferOwnership",
      "outputs": [],
      "stateMutability": "nonpayable",
      "type": "function"
    }
  ],
  "bytecode": "0x6101406040523480156200001257600080fd5b5060405162003c6d38038062003c6d83398181016040528101906200003891906200073d565b81806040518060400160405280600181526020017f3100000000000000000000000000000000000000000000000000000000000000815250848481600390805190602001906200008a929190620004f0565b508060049080519060200190620000a3929190620004f0565b50505060008280519060200120905060008280519060200120905060007f8b73c3c69bb8fe3d512ecc4cf759cc79239f7b179b0ffacaa9a75d522b39400f90508260e081815250508161010081815250504660a081815250506200010f8184846200020560201b60201c565b608081815250503073ffffffffffffffffffffffffffffffffffffffff1660c08173ffffffffffffffffffffffffffffffffffffffff1681525050806101208181525050505050505050620001796200016d6200024160201b60201c565b6200024960201b60201c565b620001cb7f9f2df0fed2c77648de5860a4cc508cd0818c85b8b8a1ab4ceeef8d981c8956a67fa49807205ce4d355092ef5a8a18f56e8913cf4a201fbe287825b095693c217756200030f60201b60201c565b620001fd7fa49807205ce4d355092ef5a8a18f56e8913cf4a201fbe287825b095693c21775336200037360201b60201c565b5050620008ff565b60008383834630604051602001620002229594939291906200083d565b6040516020818303038152906040528051906020012090509392505050565b600033905090565b6000600860009054906101000a900473ffffffffffffffffffffffffffffffffffffffff16905081600860006101000a81548173ffffffffffffffffffffffffffffffffffffffff021916908373ffffffffffffffffffffffffffffffffffffffff1602179055508173ffffffffffffffffffffffffffffffffffffffff168173ffffffffffffffffffffffffffffffffffffffff167f8be0079c531659141344cd1fd0a4f28419497f9722a3daafe3b4186f6b6457e060405160405180910390a35050565b600062000322836200046560201b60201c565b90508160076000858152602001908152602001600020600101819055508181847fbd79b86ffe0ab8e8776151514217cd7cacd52c909f66475c3af44e129f0b00ff60405160405180910390a4505050565b6200038582826200048560201b60201c565b620004615760016007600084815260200190815260200160002060000160008373ffffffffffffffffffffffffffffffffffffffff1673ffffffffffffffffffffffffffffffffffffffff16815260200190815260200160002060006101000a81548160ff021916908315150217905550620004066200024160201b60201c565b73ffffffffffffffffffffffffffffffffffffffff168173ffffffffffffffffffffffffffffffffffffffff16837f2f8788117e7eff1d82e926ec794901d17c78024a50270940304540a733656f0d60405160405180910390a45b5050565b600060076000838152602001908152602001600020600101549050919050565b60006007600084815260200190815260200160002060000160008373ffffffffffffffffffffffffffffffffffffffff1673ffffffffffffffffffffffffffffffffffffffff16815260200190815260200160002060009054906101000a900460ff16905092915050565b828054620004fe90620008c9565b90600052602060002090601f0160209004810192826200052257600085556200056e565b82601f106200053d57805160ff19168380011785556200056e565b828001600101855582156200056e579182015b828111156200056d57825182559160200191906001019062000550565b5b5090506200057d919062000581565b5090565b5b808211156200059c57600081600090555060010162000582565b5090565b6000604051905090565b600080fd5b600080fd5b600080fd5b600080fd5b6000601f19601f8301169050919050565b7f4e487b7100000000000000000000000000000000000000000000000000000000600052604160045260246000fd5b6200060982620005be565b810181811067ffffffffffffffff821117156200062b576200062a620005cf565b5b80604052505050565b600062000640620005a0565b90506200064e8282620005fe565b919050565b600067ffffffffffffffff821115620006715762000670620005cf565b5b6200067c82620005be565b9050602081019050919050565b60005b83811015620006a95780820151818401526020810190506200068c565b83811115620006b9576000848401525b50505050565b6000620006d6620006d08462000653565b62000634565b905082815260208101848484011115620006f557620006f4620005b9565b5b6200070284828562000689565b509392505050565b600082601f830112620007225762000721620005b4565b5b815162000734848260208601620006bf565b91505092915050565b60008060408385031215620007575762000756620005aa565b5b600083015167ffffffffffffffff811115620007785762000777620005af565b5b62000786858286016200070a565b925050602083015167ffffffffffffffff811115620007aa57620007a9620005af565b5b620007b8858286016200070a565b9150509250929050565b6000819050919050565b620007d781620007c2565b82525050565b6000819050919050565b620007f281620007dd565b82525050565b600073ffffffffffffffffffffffffffffffffffffffff82169050919050565b60006200082582620007f8565b9050919050565b620008378162000818565b82525050565b600060a082019050620008546000830188620007cc565b620008636020830187620007cc565b620008726040830186620007cc565b620008816060830185620007e7565b6200089060808301846200082c565b9695505050505050565b7f4e487b7100000000000000000000000000000000000000000000000000000000600052602260045260246000fd5b60006002820490506001821680620008e257607f821691505b60208210811415620008f957620008f86200089a565b5b50919050565b60805160a05160c05160e051610100516101205161331e6200094f60003960006114e501526000611527015260006115060152600061143b01526000611491015260006114ba015261331e6000f3fe608060405234801561001057600080fd5b50600436106101cf5760003560e01c80637a992dac11610104578063a457c2d7116100a2578063d539139311610071578063d539139314610558578063d547741f14610576578063dd62ed3e14610592578063f2fde38b146105c2576101cf565b8063a457c2d7146104c0578063a9059cbb146104f0578063b265328f14610520578063d505accf1461053c576101cf565b806391d14854116100de57806391d148541461043857806395d89b4114610468578063a0712d6814610486578063a217fddf146104a2576101cf565b80637a992dac146103cc5780637ecebe00146103ea5780638da5cb5b1461041a576101cf565b8063313ce56711610171578063395093511161014b578063395093511461034457806370a0823114610374578063715018a6146103a457806375b238fc146103ae576101cf565b8063313ce567146102ec5780633644e5151461030a57806336568abe14610328576101cf565b806318160ddd116101ad57806318160ddd1461025257806323b872dd14610270578063248a9ca3146102a05780632f2ff15d146102d0576101cf565b806301ffc9a7146101d457806306fdde0314610204578063095ea7b314610222575b600080fd5b6101ee60048036038101906101e9919061202d565b6105de565b6040516101fb9190612075565b60405180910390f35b61020c610658565b6040516102199190612129565b60405180910390f35b61023c600480360381019061023791906121df565b6106ea565b6040516102499190612075565b60405180910390f35b61025a61070d565b604051610267919061222e565b60405180910390f35b61028a60048036038101906102859190612249565b610717565b6040516102979190612075565b60405180910390f35b6102ba60048036038101906102b591906122d2565b610746565b6040516102c7919061230e565b60405180910390f35b6102ea60048036038101906102e59190612329565b610766565b005b6102f4610787565b6040516103019190612385565b60405180910390f35b610312610790565b60405161031f919061230e565b60405180910390f35b610342600480360381019061033d9190612329565b61079f565b005b61035e600480360381019061035991906121df565b610822565b60405161036b9190612075565b60405180910390f35b61038e600480360381019061038991906123a0565b610859565b60405161039b919061222e565b60405180910390f35b6103ac6108a1565b005b6103b66108b5565b6040516103c3919061230e565b60405180910390f35b6103d46108d9565b6040516103e1919061222e565b60405180910390f35b61040460048036038101906103ff91906123a0565b6108e1565b604051610411919061222e565b60405180910390f35b610422610931565b60405161042f91906123dc565b60405180910390f35b610452600480360381019061044d9190612329565b61095b565b60405161045f9190612075565b60405180910390f35b6104706109c6565b60405161047d9190612129565b60405180910390f35b6104a0600480360381019061049b91906123f7565b610a58565b005b6104aa610a90565b6040516104b7919061230e565b60405180910390f35b6104da60048036038101906104d591906121df565b610a97565b6040516104e79190612075565b60405180910390f35b61050a600480360381019061050591906121df565b610b0e565b6040516105179190612075565b60405180910390f35b61053a600480360381019061053591906123a0565b610b31565b005b61055660048036038101906105519190612450565b610b66565b005b610560610ca8565b60405161056d919061230e565b60405180910390f35b610590600480360381019061058b9190612329565b610ccc565b005b6105ac60048036038101906105a791906124f2565b610ced565b6040516105b9919061222e565b60405180910390f35b6105dc60048036038101906105d791906123a0565b610d74565b005b60007f7965db0b000000000000000000000000000000000000000000000000000000007bffffffffffffffffffffffffffffffffffffffffffffffffffffffff1916827bffffffffffffffffffffffffffffffffffffffffffffffffffffffff19161480610651575061065082610df8565b5b9050919050565b60606003805461066790612561565b80601f016020809104026020016040519081016040528092919081815260200182805461069390612561565b80156106e05780601f106106b5576101008083540402835291602001916106e0565b820191906000526020600020905b8154815290600101906020018083116106c357829003601f168201915b5050505050905090565b6000806106f5610e62565b9050610702818585610e6a565b600191505092915050565b6000600254905090565b600080610722610e62565b905061072f858285611035565b61073a8585856110c1565b60019150509392505050565b600060076000838152602001908152602001600020600101549050919050565b61076f82610746565b61077881611342565b6107828383611356565b505050565b60006012905090565b600061079a611437565b905090565b6107a7610e62565b73ffffffffffffffffffffffffffffffffffffffff168173ffffffffffffffffffffffffffffffffffffffff1614610814576040517f08c379a000000000000000000000000000000000000000000000000000000000815260040161080b90612605565b60405180910390fd5b61081e8282611551565b5050565b60008061082d610e62565b905061084e81858561083f8589610ced565b6108499190612654565b610e6a565b600191505092915050565b60008060008373ffffffffffffffffffffffffffffffffffffffff1673ffffffffffffffffffffffffffffffffffffffff168152602001908152602001600020549050919050565b6108a9611633565b6108b360006116b1565b565b7fa49807205ce4d355092ef5a8a18f56e8913cf4a201fbe287825b095693c2177581565b600046905090565b600061092a600560008473ffffffffffffffffffffffffffffffffffffffff1673ffffffffffffffffffffffffffffffffffffffff168152602001908152602001600020611777565b9050919050565b6000600860009054906101000a900473ffffffffffffffffffffffffffffffffffffffff16905090565b60006007600084815260200190815260200160002060000160008373ffffffffffffffffffffffffffffffffffffffff1673ffffffffffffffffffffffffffffffffffffffff16815260200190815260200160002060009054906101000a900460ff16905092915050565b6060600480546109d590612561565b80601f0160208091040260200160405190810160405280929190818152602001828054610a0190612561565b8015610a4e5780601f10610a2357610100808354040283529160200191610a4e565b820191906000526020600020905b815481529060010190602001808311610a3157829003601f168201915b5050505050905090565b7f9f2df0fed2c77648de5860a4cc508cd0818c85b8b8a1ab4ceeef8d981c8956a6610a8281611342565b610a8c3383611785565b5050565b6000801b81565b600080610aa2610e62565b90506000610ab08286610ced565b905083811015610af5576040517f08c379a0000000000000000000000000000000000000000000000000000000008152600401610aec9061271c565b60405180910390fd5b610b028286868403610e6a565b60019250505092915050565b600080610b19610e62565b9050610b268185856110c1565b600191505092915050565b610b39611633565b610b637fa49807205ce4d355092ef5a8a18f56e8913cf4a201fbe287825b095693c2177582611356565b50565b83421115610ba9576040517f08c379a0000000000000000000000000000000000000000000000000000000008152600401610ba090612788565b60405180910390fd5b60007f6e71edae12b1b97f4d1f60370fef10105fa2faae0126114a169c64845d6126c9888888610bd88c6118e5565b89604051602001610bee969594939291906127a8565b6040516020818303038152906040528051906020012090506000610c1182611943565b90506000610c218287878761195d565b90508973ffffffffffffffffffffffffffffffffffffffff168173ffffffffffffffffffffffffffffffffffffffff1614610c91576040517f08c379a0000000000000000000000000000000000000000000000000000000008152600401610c8890612855565b60405180910390fd5b610c9c8a8a8a610e6a565b50505050505050505050565b7f9f2df0fed2c77648de5860a4cc508cd0818c85b8b8a1ab4ceeef8d981c8956a681565b610cd582610746565b610cde81611342565b610ce88383611551565b505050565b6000600160008473ffffffffffffffffffffffffffffffffffffffff1673ffffffffffffffffffffffffffffffffffffffff16815260200190815260200160002060008373ffffffffffffffffffffffffffffffffffffffff1673ffffffffffffffffffffffffffffffffffffffff16815260200190815260200160002054905092915050565b610d7c611633565b600073ffffffffffffffffffffffffffffffffffffffff168173ffffffffffffffffffffffffffffffffffffffff161415610dec576040517f08c379a0000000000000000000000000000000000000000000000000000000008152600401610de3906128e7565b60405180910390fd5b610df5816116b1565b50565b60007f01ffc9a7000000000000000000000000000000000000000000000000000000007bffffffffffffffffffffffffffffffffffffffffffffffffffffffff1916827bffffffffffffffffffffffffffffffffffffffffffffffffffffffff1916149050919050565b600033905090565b600073ffffffffffffffffffffffffffffffffffffffff168373ffffffffffffffffffffffffffffffffffffffff161415610eda576040517f08c379a0000000000000000000000000000000000000000000000000000000008152600401610ed190612979565b60405180910390fd5b600073ffffffffffffffffffffffffffffffffffffffff168273ffffffffffffffffffffffffffffffffffffffff161415610f4a576040517f08c379a0000000000000000000000000000000000000000000000000000000008152600401610f4190612a0b565b60405180910390fd5b80600160008573ffffffffffffffffffffffffffffffffffffffff1673ffffffffffffffffffffffffffffffffffffffff16815260200190815260200160002060008473ffffffffffffffffffffffffffffffffffffffff1673ffffffffffffffffffffffffffffffffffffffff168152602001908152602001600020819055508173ffffffffffffffffffffffffffffffffffffffff168373ffffffffffffffffffffffffffffffffffffffff167f8c5be1e5ebec7d5bd14f71427d1e84f3dd0314c0f7b2291e5b200ac8c7c3b92583604051611028919061222e565b60405180910390a3505050565b60006110418484610ced565b90507fffffffffffffffffffffffffffffffffffffffffffffffffffffffffffffffff81146110bb57818110156110ad576040517f08c379a00000000000000000000000000000000000000000000000000000000081526004016110a490612a77565b60405180910390fd5b6110ba8484848403610e6a565b5b50505050565b600073ffffffffffffffffffffffffffffffffffffffff168373ffffffffffffffffffffffffffffffffffffffff161415611131576040517f08c379a000000000000000000000000000000000000000000000000000000000815260040161112890612b09565b60405180910390fd5b600073ffffffffffffffffffffffffffffffffffffffff168273ffffffffffffffffffffffffffffffffffffffff1614156111a1576040517f08c379a000000000000000000000000000000000000000000000000000000000815260040161119890612b9b565b60405180910390fd5b6111ac838383611988565b60008060008573ffffffffffffffffffffffffffffffffffffffff1673ffffffffffffffffffffffffffffffffffffffff16815260200190815260200160002054905081811015611232576040517f08c379a000000000000000000000000000000000000000000000000000000000815260040161122990612c2d565b60405180910390fd5b8181036000808673ffffffffffffffffffffffffffffffffffffffff1673ffffffffffffffffffffffffffffffffffffffff16815260200190815260200160002081905550816000808573ffffffffffffffffffffffffffffffffffffffff1673ffffffffffffffffffffffffffffffffffffffff16815260200190815260200160002060008282546112c59190612654565b925050819055508273ffffffffffffffffffffffffffffffffffffffff168473ffffffffffffffffffffffffffffffffffffffff167fddf252ad1be2c89b69c2b068fc378daa952ba7f163c4a11628f55a4df523b3ef84604051611329919061222e565b60405180910390a361133c84848461198d565b50505050565b6113538161134e610e62565b611992565b50565b611360828261095b565b6114335760016007600084815260200190815260200160002060000160008373ffffffffffffffffffffffffffffffffffffffff1673ffffffffffffffffffffffffffffffffffffffff16815260200190815260200160002060006101000a81548160ff0219169083151502179055506113d8610e62565b73ffffffffffffffffffffffffffffffffffffffff168173ffffffffffffffffffffffffffffffffffffffff16837f2f8788117e7eff1d82e926ec794901d17c78024a50270940304540a733656f0d60405160405180910390a45b5050565b60007f000000000000000000000000000000000000000000000000000000000000000073ffffffffffffffffffffffffffffffffffffffff163073ffffffffffffffffffffffffffffffffffffffff161480156114b357507f000000000000000000000000000000000000000000000000000000000000000046145b156114e0577f0000000000000000000000000000000000000000000000000000000000000000905061154e565b61154b7f00000000000000000000000000000000000000000000000000000000000000007f00000000000000000000000000000000000000000000000000000000000000007f0000000000000000000000000000000000000000000000000000000000000000611a2f565b90505b90565b61155b828261095b565b1561162f5760006007600084815260200190815260200160002060000160008373ffffffffffffffffffffffffffffffffffffffff1673ffffffffffffffffffffffffffffffffffffffff16815260200190815260200160002060006101000a81548160ff0219169083151502179055506115d4610e62565b73ffffffffffffffffffffffffffffffffffffffff168173ffffffffffffffffffffffffffffffffffffffff16837ff6391f5c32d9c69d2a47ea670b442974b53935d1edc7fd64eb21e047a839171b60405160405180910390a45b5050565b61163b610e62565b73ffffffffffffffffffffffffffffffffffffffff16611659610931565b73ffffffffffffffffffffffffffffffffffffffff16146116af576040517f08c379a00000000000000000000000000000000000000000000000000000000081526004016116a690612c99565b60405180910390fd5b565b6000600860009054906101000a900473ffffffffffffffffffffffffffffffffffffffff16905081600860006101000a81548173ffffffffffffffffffffffffffffffffffffffff021916908373ffffffffffffffffffffffffffffffffffffffff1602179055508173ffffffffffffffffffffffffffffffffffffffff168173ffffffffffffffffffffffffffffffffffffffff167f8be0079c531659141344cd1fd0a4f28419497f9722a3daafe3b4186f6b6457e060405160405180910390a35050565b600081600001549050919050565b600073ffffffffffffffffffffffffffffffffffffffff168273ffffffffffffffffffffffffffffffffffffffff1614156117f5576040517f08c379a00000000000000000000000000000000000000000000000000000000081526004016117ec90612d05565b60405180910390fd5b61180160008383611988565b80600260008282546118139190612654565b92505081905550806000808473ffffffffffffffffffffffffffffffffffffffff1673ffffffffffffffffffffffffffffffffffffffff16815260200190815260200160002060008282546118689190612654565b925050819055508173ffffffffffffffffffffffffffffffffffffffff16600073ffffffffffffffffffffffffffffffffffffffff167fddf252ad1be2c89b69c2b068fc378daa952ba7f163c4a11628f55a4df523b3ef836040516118cd919061222e565b60405180910390a36118e16000838361198d565b5050565b600080600560008473ffffffffffffffffffffffffffffffffffffffff1673ffffffffffffffffffffffffffffffffffffffff168152602001908152602001600020905061193281611777565b915061193d81611a69565b50919050565b6000611956611950611437565b83611a7f565b9050919050565b600080600061196e87878787611ab2565b9150915061197b81611bbf565b8192505050949350505050565b505050565b505050565b61199c828261095b565b611a2b576119c18173ffffffffffffffffffffffffffffffffffffffff166014611d94565b6119cf8360001c6020611d94565b6040516020016119e0929190612df9565b6040516020818303038152906040526040517f08c379a0000000000000000000000000000000000000000000000000000000008152600401611a229190612129565b60405180910390fd5b5050565b60008383834630604051602001611a4a959493929190612e33565b6040516020818303038152906040528051906020012090509392505050565b6001816000016000828254019250508190555050565b60008282604051602001611a94929190612ef3565b60405160208183030381529060405280519060200120905092915050565b6000807f7fffffffffffffffffffffffffffffff5d576e7357a4501ddfe92f46681b20a08360001c1115611aed576000600391509150611bb6565b601b8560ff1614158015611b055750601c8560ff1614155b15611b17576000600491509150611bb6565b600060018787878760405160008152602001604052604051611b3c9493929190612f2a565b6020604051602081039080840390855afa158015611b5e573d6000803e3d6000fd5b505050602060405103519050600073ffffffffffffffffffffffffffffffffffffffff168173ffffffffffffffffffffffffffffffffffffffff161415611bad57600060019250925050611bb6565b80600092509250505b94509492505050565b60006004811115611bd357611bd2612f6f565b5b816004811115611be657611be5612f6f565b5b1415611bf157611d91565b60016004811115611c0557611c04612f6f565b5b816004811115611c1857611c17612f6f565b5b1415611c59576040517f08c379a0000000000000000000000000000000000000000000000000000000008152600401611c5090612fea565b60405180910390fd5b60026004811115611c6d57611c6c612f6f565b5b816004811115611c8057611c7f612f6f565b5b1415611cc1576040517f08c379a0000000000000000000000000000000000000000000000000000000008152600401611cb890613056565b60405180910390fd5b60036004811115611cd557611cd4612f6f565b5b816004811115611ce857611ce7612f6f565b5b1415611d29576040517f08c379a0000000000000000000000000000000000000000000000000000000008152600401611d20906130e8565b60405180910390fd5b600480811115611d3c57611d3b612f6f565b5b816004811115611d4f57611d4e612f6f565b5b1415611d90576040517f08c379a0000000000000000000000000000000000000000000000000000000008152600401611d879061317a565b60405180910390fd5b5b50565b606060006002836002611da7919061319a565b611db19190612654565b67ffffffffffffffff811115611dca57611dc96131f4565b5b6040519080825280601f01601f191660200182016040528015611dfc5781602001600182028036833780820191505090505b5090507f300000000000000000000000000000000000000000000000000000000000000081600081518110611e3457611e33613223565b5b60200101907effffffffffffffffffffffffffffffffffffffffffffffffffffffffffffff1916908160001a9053507f780000000000000000000000000000000000000000000000000000000000000081600181518110611e9857611e97613223565b5b60200101907effffffffffffffffffffffffffffffffffffffffffffffffffffffffffffff1916908160001a90535060006001846002611ed8919061319a565b611ee29190612654565b90505b6001811115611f82577f3031323334353637383961626364656600000000000000000000000000000000600f861660108110611f2457611f23613223565b5b1a60f81b828281518110611f3b57611f3a613223565b5b60200101907effffffffffffffffffffffffffffffffffffffffffffffffffffffffffffff1916908160001a905350600485901c945080611f7b90613252565b9050611ee5565b5060008414611fc6576040517f08c379a0000000000000000000000000000000000000000000000000000000008152600401611fbd906132c8565b60405180910390fd5b8091505092915050565b600080fd5b60007fffffffff0000000000000000000000000000000000000000000000000000000082169050919050565b61200a81611fd5565b811461201557600080fd5b50565b60008135905061202781612001565b92915050565b60006020828403121561204357612042611fd0565b5b600061205184828501612018565b91505092915050565b60008115159050919050565b61206f8161205a565b82525050565b600060208201905061208a6000830184612066565b92915050565b600081519050919050565b600082825260208201905092915050565b60005b838110156120ca5780820151818401526020810190506120af565b838111156120d9576000848401525b50505050565b6000601f19601f8301169050919050565b60006120fb82612090565b612105818561209b565b93506121158185602086016120ac565b61211e816120df565b840191505092915050565b6000602082019050818103600083015261214381846120f0565b905092915050565b600073ffffffffffffffffffffffffffffffffffffffff82169050919050565b60006121768261214b565b9050919050565b6121868161216b565b811461219157600080fd5b50565b6000813590506121a38161217d565b92915050565b6000819050919050565b6121bc816121a9565b81146121c757600080fd5b50565b6000813590506121d9816121b3565b92915050565b600080604083850312156121f6576121f5611fd0565b5b600061220485828601612194565b9250506020612215858286016121ca565b9150509250929050565b612228816121a9565b82525050565b6000602082019050612243600083018461221f565b92915050565b60008060006060848603121561226257612261611fd0565b5b600061227086828701612194565b935050602061228186828701612194565b9250506040612292868287016121ca565b9150509250925092565b6000819050919050565b6122af8161229c565b81146122ba57600080fd5b50565b6000813590506122cc816122a6565b92915050565b6000602082840312156122e8576122e7611fd0565b5b60006122f6848285016122bd565b91505092915050565b6123088161229c565b82525050565b600060208201905061232360008301846122ff565b92915050565b600080604083850312156123405761233f611fd0565b5b600061234e858286016122bd565b925050602061235f85828601612194565b9150509250929050565b600060ff82169050919050565b61237f81612369565b82525050565b600060208201905061239a6000830184612376565b92915050565b6000602082840312156123b6576123b5611fd0565b5b60006123c484828501612194565b91505092915050565b6123d68161216b565b82525050565b60006020820190506123f160008301846123cd565b92915050565b60006020828403121561240d5761240c611fd0565b5b600061241b848285016121ca565b91505092915050565b61242d81612369565b811461243857600080fd5b50565b60008135905061244a81612424565b92915050565b600080600080600080600060e0888a03121561246f5761246e611fd0565b5b600061247d8a828b01612194565b975050602061248e8a828b01612194565b965050604061249f8a828b016121ca565b95505060606124b08a828b016121ca565b94505060806124c18a828b0161243b565b93505060a06124d28a828b016122bd565b92505060c06124e38a828b016122bd565b91505092959891949750929550565b6000806040838503121561250957612508611fd0565b5b600061251785828601612194565b925050602061252885828601612194565b9150509250929050565b7f4e487b7100000000000000000000000000000000000000000000000000000000600052602260045260246000fd5b6000600282049050600182168061257957607f821691505b6020821081141561258d5761258c612532565b5b50919050565b7f416363657373436f6e74726f6c3a2063616e206f6e6c792072656e6f756e636560008201527f20726f6c657320666f722073656c660000000000000000000000000000000000602082015250565b60006125ef602f8361209b565b91506125fa82612593565b604082019050919050565b6000602082019050818103600083015261261e816125e2565b9050919050565b7f4e487b7100000000000000000000000000000000000000000000000000000000600052601160045260246000fd5b600061265f826121a9565b915061266a836121a9565b9250827fffffffffffffffffffffffffffffffffffffffffffffffffffffffffffffffff0382111561269f5761269e612625565b5b828201905092915050565b7f45524332303a2064656372656173656420616c6c6f77616e63652062656c6f7760008201527f207a65726f000000000000000000000000000000000000000000000000000000602082015250565b600061270660258361209b565b9150612711826126aa565b604082019050919050565b60006020820190508181036000830152612735816126f9565b9050919050565b7f45524332305065726d69743a206578706972656420646561646c696e65000000600082015250565b6000612772601d8361209b565b915061277d8261273c565b602082019050919050565b600060208201905081810360008301526127a181612765565b9050919050565b600060c0820190506127bd60008301896122ff565b6127ca60208301886123cd565b6127d760408301876123cd565b6127e4606083018661221f565b6127f1608083018561221f565b6127fe60a083018461221f565b979650505050505050565b7f45524332305065726d69743a20696e76616c6964207369676e61747572650000600082015250565b600061283f601e8361209b565b915061284a82612809565b602082019050919050565b6000602082019050818103600083015261286e81612832565b9050919050565b7f4f776e61626c653a206e6577206f776e657220697320746865207a65726f206160008201527f6464726573730000000000000000000000000000000000000000000000000000602082015250565b60006128d160268361209b565b91506128dc82612875565b604082019050919050565b60006020820190508181036000830152612900816128c4565b9050919050565b7f45524332303a20617070726f76652066726f6d20746865207a65726f2061646460008201527f7265737300000000000000000000000000000000000000000000000000000000602082015250565b600061296360248361209b565b915061296e82612907565b604082019050919050565b6000602082019050818103600083015261299281612956565b9050919050565b7f45524332303a20617070726f766520746f20746865207a65726f20616464726560008201527f7373000000000000000000000000000000000000000000000000000000000000602082015250565b60006129f560228361209b565b9150612a0082612999565b604082019050919050565b60006020820190508181036000830152612a24816129e8565b9050919050565b7f45524332303a20696e73756666696369656e7420616c6c6f77616e6365000000600082015250565b6000612a61601d8361209b565b9150612a6c82612a2b565b602082019050919050565b60006020820190508181036000830152612a9081612a54565b9050919050565b7f45524332303a207472616e736665722066726f6d20746865207a65726f20616460008201527f6472657373000000000000000000000000000000000000000000000000000000602082015250565b6000612af360258361209b565b9150612afe82612a97565b604082019050919050565b60006020820190508181036000830152612b2281612ae6565b9050919050565b7f45524332303a207472616e7366657220746f20746865207a65726f206164647260008201527f6573730000000000000000000000000000000000000000000000000000000000602082015250565b6000612b8560238361209b565b9150612b9082612b29565b604082019050919050565b60006020820190508181036000830152612bb481612b78565b9050919050565b7f45524332303a207472616e7366657220616d6f756e742065786365656473206260008201527f616c616e63650000000000000000000000000000000000000000000000000000602082015250565b6000612c1760268361209b565b9150612c2282612bbb565b604082019050919050565b60006020820190508181036000830152612c4681612c0a565b9050919050565b7f4f776e61626c653a2063616c6c6572206973206e6f7420746865206f776e6572600082015250565b6000612c8360208361209b565b9150612c8e82612c4d565b602082019050919050565b60006020820190508181036000830152612cb281612c76565b9050919050565b7f45524332303a206d696e7420746f20746865207a65726f206164647265737300600082015250565b6000612cef601f8361209b565b9150612cfa82612cb9565b602082019050919050565b60006020820190508181036000830152612d1e81612ce2565b9050919050565b600081905092915050565b7f416363657373436f6e74726f6c3a206163636f756e7420000000000000000000600082015250565b6000612d66601783612d25565b9150612d7182612d30565b601782019050919050565b6000612d8782612090565b612d918185612d25565b9350612da18185602086016120ac565b80840191505092915050565b7f206973206d697373696e6720726f6c6520000000000000000000000000000000600082015250565b6000612de3601183612d25565b9150612dee82612dad565b601182019050919050565b6000612e0482612d59565b9150612e108285612d7c565b9150612e1b82612dd6565b9150612e278284612d7c565b91508190509392505050565b600060a082019050612e4860008301886122ff565b612e5560208301876122ff565b612e6260408301866122ff565b612e6f606083018561221f565b612e7c60808301846123cd565b9695505050505050565b7f1901000000000000000000000000000000000000000000000000000000000000600082015250565b6000612ebc600283612d25565b9150612ec782612e86565b600282019050919050565b6000819050919050565b612eed612ee88261229c565b612ed2565b82525050565b6000612efe82612eaf565b9150612f0a8285612edc565b602082019150612f1a8284612edc565b6020820191508190509392505050565b6000608082019050612f3f60008301876122ff565b612f4c6020830186612376565b612f5960408301856122ff565b612f6660608301846122ff565b95945050505050565b7f4e487b7100000000000000000000000000000000000000000000000000000000600052602160045260246000fd5b7f45434453413a20696e76616c6964207369676e61747572650000000000000000600082015250565b6000612fd460188361209b565b9150612fdf82612f9e565b602082019050919050565b6000602082019050818103600083015261300381612fc7565b9050919050565b7f45434453413a20696e76616c6964207369676e6174757265206c656e67746800600082015250565b6000613040601f8361209b565b915061304b8261300a565b602082019050919050565b6000602082019050818103600083015261306f81613033565b9050919050565b7f45434453413a20696e76616c6964207369676e6174757265202773272076616c60008201527f7565000000000000000000000000000000000000000000000000000000000000602082015250565b60006130d260228361209b565b91506130dd82613076565b604082019050919050565b60006020820190508181036000830152613101816130c5565b9050919050565b7f45434453413a20696e76616c6964207369676e6174757265202776272076616c60008201527f7565000000000000000000000000000000000000000000000000000000000000602082015250565b600061316460228361209b565b915061316f82613108565b604082019050919050565b6000602082019050818103600083015261319381613157565b9050919050565b60006131a5826121a9565b91506131b0836121a9565b9250817fffffffffffffffffffffffffffffffffffffffffffffffffffffffffffffffff04831182151516156131e9576131e8612625565b5b828202905092915050565b7f4e487b7100000000000000000000000000000000000000000000000000000000600052604160045260246000fd5b7f4e487b7100000000000000000000000000000000000000000000000000000000600052603260045260246000fd5b600061325d826121a9565b9150600082141561327157613270612625565b5b600182039050919050565b7f537472696e67733a20686578206c656e67746820696e73756666696369656e74600082015250565b60006132b260208361209b565b91506132bd8261327c565b602082019050919050565b600060208201905081810360008301526132e1816132a5565b905091905056fea26469706673582212206218364f91217e8931e68ff3a7797c8d19cbf9ddada0585804bf4e83bef5241e64736f6c63430008090033",
  "linkReferences": {},
  "deployedLinkReferences": {}
}