{
  "_format": "hh-sol-artifact-1",
  "contractName": "LeaseNFT",
  "sourceName": "contracts/LeaseNFT.sol",
  "abi": [
    {
      "inputs": [
        {
          "internalType": "address",
          "name": "nftToken",
          "type": "address"
        },
        {
          "internalType": "address",
          "name": "_goldToken",
          "type": "address"
        }
      ],
      "stateMutability": "nonpayable",
      "type": "constructor"
    },
    {
      "anonymous": false,
      "inputs": [
        {
          "indexed": true,
          "internalType": "address",
          "name": "dst",
          "type": "address"
        },
        {
          "indexed": false,
          "internalType": "uint256",
          "name": "wad",
          "type": "uint256"
        }
      ],
      "name": "Deposit",
      "type": "event"
    },
    {
      "anonymous": false,
      "inputs": [
        {
          "indexed": false,
          "internalType": "address",
          "name": "pariAddress",
          "type": "address"
        },
        {
          "indexed": false,
          "internalType": "uint256",
          "name": "tokenId",
          "type": "uint256"
        }
      ],
      "name": "LeaseEvent",
      "type": "event"
    },
    {
      "anonymous": false,
      "inputs": [
        {
          "indexed": false,
          "internalType": "address",
          "name": "from",
          "type": "address"
        },
        {
          "indexed": false,
          "internalType": "uint256",
          "name": "tokenId",
          "type": "uint256"
        },
        {
          "indexed": false,
          "internalType": "uint256",
          "name": "price",
          "type": "uint256"
        }
      ],
      "name": "RentalEvent",
      "type": "event"
    },
    {
      "anonymous": false,
      "inputs": [
        {
          "indexed": true,
          "internalType": "uint256",
          "name": "tokenId",
          "type": "uint256"
        },
        {
          "indexed": true,
          "internalType": "address",
          "name": "user",
          "type": "address"
        },
        {
          "indexed": false,
          "internalType": "uint64",
          "name": "expires",
          "type": "uint64"
        }
      ],
      "name": "UpdateUser",
      "type": "event"
    },
    {
      "anonymous": false,
      "inputs": [
        {
          "indexed": true,
          "internalType": "address",
          "name": "src",
          "type": "address"
        },
        {
          "indexed": false,
          "internalType": "uint256",
          "name": "wad",
          "type": "uint256"
        }
      ],
      "name": "Withdrawal",
      "type": "event"
    },
    {
      "inputs": [],
      "name": "MINTER_ROLE",
      "outputs": [
        {
          "internalType": "bytes32",
          "name": "",
          "type": "bytes32"
        }
      ],
      "stateMutability": "view",
      "type": "function"
    },
    {
      "inputs": [
        {
          "internalType": "uint256",
          "name": "",
          "type": "uint256"
        }
      ],
      "name": "_leases",
      "outputs": [
        {
          "internalType": "uint256",
          "name": "tokenId",
          "type": "uint256"
        },
        {
          "internalType": "address",
          "name": "owner",
          "type": "address"
        },
        {
          "internalType": "address",
          "name": "user",
          "type": "address"
        },
        {
          "internalType": "uint256",
          "name": "expires",
          "type": "uint256"
        },
        {
          "internalType": "address",
          "name": "agreement",
          "type": "address"
        }
      ],
      "stateMutability": "view",
      "type": "function"
    },
    {
      "inputs": [
        {
          "internalType": "uint256",
          "name": "",
          "type": "uint256"
        }
      ],
      "name": "_owners",
      "outputs": [
        {
          "internalType": "address",
          "name": "",
          "type": "address"
        }
      ],
      "stateMutability": "view",
      "type": "function"
    },
    {
      "inputs": [
        {
          "internalType": "uint256",
          "name": "",
          "type": "uint256"
        }
      ],
      "name": "_rentals",
      "outputs": [
        {
          "internalType": "uint256",
          "name": "tokenId",
          "type": "uint256"
        },
        {
          "internalType": "address",
          "name": "owner",
          "type": "address"
        },
        {
          "internalType": "uint256",
          "name": "price",
          "type": "uint256"
        }
      ],
      "stateMutability": "view",
      "type": "function"
    },
    {
      "inputs": [
        {
          "internalType": "address",
          "name": "",
          "type": "address"
        }
      ],
      "name": "balanceOf",
      "outputs": [
        {
          "internalType": "uint256",
          "name": "",
          "type": "uint256"
        }
      ],
      "stateMutability": "view",
      "type": "function"
    },
    {
      "inputs": [
        {
          "internalType": "uint256",
          "name": "tokenId",
          "type": "uint256"
        }
      ],
      "name": "cancelRental",
      "outputs": [],
      "stateMutability": "nonpayable",
      "type": "function"
    },
    {
      "inputs": [
        {
          "internalType": "uint256",
          "name": "value",
          "type": "uint256"
        },
        {
          "internalType": "uint256",
          "name": "deadline",
          "type": "uint256"
        },
        {
          "internalType": "uint8",
          "name": "v",
          "type": "uint8"
        },
        {
          "internalType": "bytes32",
          "name": "r",
          "type": "bytes32"
        },
        {
          "internalType": "bytes32",
          "name": "s",
          "type": "bytes32"
        }
      ],
      "name": "deposit",
      "outputs": [],
      "stateMutability": "nonpayable",
      "type": "function"
    },
    {
      "inputs": [
        {
          "internalType": "uint256",
          "name": "tokenId",
          "type": "uint256"
        },
        {
          "internalType": "uint256",
          "name": "price",
          "type": "uint256"
        }
      ],
      "name": "entrustedRental",
      "outputs": [],
      "stateMutability": "nonpayable",
      "type": "function"
    },
    {
      "inputs": [
        {
          "internalType": "uint256",
          "name": "tokenId",
          "type": "uint256"
        },
        {
          "internalType": "uint64",
          "name": "expires",
          "type": "uint64"
        },
        {
          "internalType": "uint256",
          "name": "value",
          "type": "uint256"
        },
        {
          "internalType": "uint256",
          "name": "deadline",
          "type": "uint256"
        },
        {
          "internalType": "uint8",
          "name": "v",
          "type": "uint8"
        },
        {
          "internalType": "bytes32",
          "name": "r",
          "type": "bytes32"
        },
        {
          "internalType": "bytes32",
          "name": "s",
          "type": "bytes32"
        }
      ],
      "name": "leaseNFT",
      "outputs": [],
      "stateMutability": "nonpayable",
      "type": "function"
    },
    {
      "inputs": [
        {
          "internalType": "uint256",
          "name": "tokenId",
          "type": "uint256"
        },
        {
          "internalType": "uint64",
          "name": "expires",
          "type": "uint64"
        }
      ],
      "name": "leaseNFTbyPrepaid",
      "outputs": [],
      "stateMutability": "nonpayable",
      "type": "function"
    },
    {
      "inputs": [
        {
          "internalType": "address",
          "name": "",
          "type": "address"
        },
        {
          "internalType": "address",
          "name": "",
          "type": "address"
        },
        {
          "internalType": "uint256",
          "name": "",
          "type": "uint256"
        },
        {
          "internalType": "bytes",
          "name": "",
          "type": "bytes"
        }
      ],
      "name": "onERC721Received",
      "outputs": [
        {
          "internalType": "bytes4",
          "name": "",
          "type": "bytes4"
        }
      ],
      "stateMutability": "nonpayable",
      "type": "function"
    },
    {
      "inputs": [
        {
          "internalType": "uint256",
          "name": "tokenId",
          "type": "uint256"
        }
      ],
      "name": "ownerOf",
      "outputs": [
        {
          "internalType": "address",
          "name": "",
          "type": "address"
        }
      ],
      "stateMutability": "view",
      "type": "function"
    },
    {
      "inputs": [
        {
          "internalType": "uint256",
          "name": "tokenId",
          "type": "uint256"
        }
      ],
      "name": "userExpires",
      "outputs": [
        {
          "internalType": "uint256",
          "name": "",
          "type": "uint256"
        }
      ],
      "stateMutability": "view",
      "type": "function"
    },
    {
      "inputs": [
        {
          "internalType": "uint256",
          "name": "tokenId",
          "type": "uint256"
        }
      ],
      "name": "userOf",
      "outputs": [
        {
          "internalType": "address",
          "name": "",
          "type": "address"
        }
      ],
      "stateMutability": "view",
      "type": "function"
    },
    {
      "inputs": [
        {
          "internalType": "uint256",
          "name": "wad",
          "type": "uint256"
        }
      ],
      "name": "withdraw",
      "outputs": [],
      "stateMutability": "nonpayable",
      "type": "function"
    }
  ],
  "bytecode": "0x60806040523480156200001157600080fd5b50604051620048923803806200489283398181016040528101906200003791906200012b565b81600260006101000a81548173ffffffffffffffffffffffffffffffffffffffff021916908373ffffffffffffffffffffffffffffffffffffffff16021790555080600160006101000a81548173ffffffffffffffffffffffffffffffffffffffff021916908373ffffffffffffffffffffffffffffffffffffffff160217905550505062000172565b600080fd5b600073ffffffffffffffffffffffffffffffffffffffff82169050919050565b6000620000f382620000c6565b9050919050565b6200010581620000e6565b81146200011157600080fd5b50565b6000815190506200012581620000fa565b92915050565b60008060408385031215620001455762000144620000c1565b5b6000620001558582860162000114565b9250506020620001688582860162000114565b9150509250929050565b61471080620001826000396000f3fe60806040523480156200001157600080fd5b50600436106200010c5760003560e01c80637e34dbe011620000a5578063a904b165116200006f578063a904b16514620002f7578063c2f1f14a1462000317578063d47777fa146200034d578063d53913931462000387576200010c565b80637e34dbe0146200024b5780638fc88c48146200026b578063992924a614620002a1578063a15848bc14620002d7576200010c565b80633a8a425e11620000e75780633a8a425e146200019f5780635e0dacb414620001bf5780636352211e14620001df57806370a082311462000215576200010c565b8063150b7a0214620001115780631860ee6014620001475780632e1a7d4d146200017f575b600080fd5b6200012f600480360381019062000129919062001d54565b620003a9565b6040516200013e919062001e22565b60405180910390f35b6200016560048036038101906200015f919062001e3f565b620003bd565b604051620001769392919062001e93565b60405180910390f35b6200019d600480360381019062000197919062001e3f565b62000407565b005b620001bd6004803603810190620001b7919062001f15565b620005b5565b005b620001dd6004803603810190620001d7919062001e3f565b62000bfa565b005b620001fd6004803603810190620001f7919062001e3f565b62000ebb565b6040516200020c919062001f5c565b60405180910390f35b6200023360048036038101906200022d919062001f79565b62000ef8565b60405162000242919062001fab565b60405180910390f35b62000269600480360381019062000263919062002041565b62000f10565b005b62000289600480360381019062000283919062001e3f565b62000fd0565b60405162000298919062001fab565b60405180910390f35b620002bf6004803603810190620002b9919062001e3f565b6200100d565b604051620002ce919062001f5c565b60405180910390f35b620002f56004803603810190620002ef9190620020c9565b62001040565b005b6200031560048036038101906200030f91906200217c565b6200126c565b005b6200033560048036038101906200032f919062001e3f565b620017db565b60405162000344919062001f5c565b60405180910390f35b6200036b600480360381019062000365919062001e3f565b62001860565b6040516200037e959493929190620021c3565b60405180910390f35b62000391620018f6565b604051620003a0919062002231565b60405180910390f35b600063150b7a0260e01b9050949350505050565b60036020528060005260406000206000915090508060000154908060010160009054906101000a900473ffffffffffffffffffffffffffffffffffffffff16908060020154905083565b80600660003373ffffffffffffffffffffffffffffffffffffffff1673ffffffffffffffffffffffffffffffffffffffff1681526020019081526020016000205410156200045457600080fd5b80600660003373ffffffffffffffffffffffffffffffffffffffff1673ffffffffffffffffffffffffffffffffffffffff1681526020019081526020016000206000828254620004a591906200227d565b92505081905550600160009054906101000a900473ffffffffffffffffffffffffffffffffffffffff1673ffffffffffffffffffffffffffffffffffffffff1663a9059cbb33836040518363ffffffff1660e01b81526004016200050b929190620022b8565b602060405180830381600087803b1580156200052657600080fd5b505af11580156200053b573d6000803e3d6000fd5b505050506040513d601f19601f8201168201806040525081019062000561919062002322565b503373ffffffffffffffffffffffffffffffffffffffff167f7fcf532c15f0a6db0bd6d0e038bea71d30d808c7d98cb3bf7268a95bf5081b6582604051620005aa919062001fab565b60405180910390a250565b3373ffffffffffffffffffffffffffffffffffffffff163273ffffffffffffffffffffffffffffffffffffffff161462000626576040517f08c379a00000000000000000000000000000000000000000000000000000000081526004016200061d90620023b5565b60405180910390fd5b620006318262000ebb565b73ffffffffffffffffffffffffffffffffffffffff16600073ffffffffffffffffffffffffffffffffffffffff161415620006a3576040517f08c379a00000000000000000000000000000000000000000000000000000000081526004016200069a9062002427565b60405180910390fd5b620006ae82620017db565b73ffffffffffffffffffffffffffffffffffffffff16600073ffffffffffffffffffffffffffffffffffffffff16146200071f576040517f08c379a0000000000000000000000000000000000000000000000000000000008152600401620007169062002499565b60405180910390fd5b600060036000848152602001908152602001600020604051806060016040529081600082015481526020016001820160009054906101000a900473ffffffffffffffffffffffffffffffffffffffff1673ffffffffffffffffffffffffffffffffffffffff1673ffffffffffffffffffffffffffffffffffffffff16815260200160028201548152505090508060400151600660003373ffffffffffffffffffffffffffffffffffffffff1673ffffffffffffffffffffffffffffffffffffffff16815260200190815260200160002054101562000834576040517f08c379a00000000000000000000000000000000000000000000000000000000081526004016200082b906200250b565b60405180910390fd5b60008160200151338585604051602001620008539493929190620025de565b604051602081830303815290604052805190602001209050600081600160009054906101000a900473ffffffffffffffffffffffffffffffffffffffff1684602001513387898860400151604051620008ac9062001b30565b620008bd96959493929190620026b0565b8190604051809103906000f5905080158015620008de573d6000803e3d6000fd5b5090508260400151600660003373ffffffffffffffffffffffffffffffffffffffff1673ffffffffffffffffffffffffffffffffffffffff16815260200190815260200160002060008282546200093691906200227d565b92505081905550600160009054906101000a900473ffffffffffffffffffffffffffffffffffffffff1673ffffffffffffffffffffffffffffffffffffffff16632f2ff15d7f9f2df0fed2c77648de5860a4cc508cd0818c85b8b8a1ab4ceeef8d981c8956a6836040518363ffffffff1660e01b8152600401620009bc9291906200271d565b600060405180830381600087803b158015620009d757600080fd5b505af1158015620009ec573d6000803e3d6000fd5b50505050600160009054906101000a900473ffffffffffffffffffffffffffffffffffffffff1673ffffffffffffffffffffffffffffffffffffffff1663a9059cbb8285604001516040518363ffffffff1660e01b815260040162000a53929190620022b8565b602060405180830381600087803b15801562000a6e57600080fd5b505af115801562000a83573d6000803e3d6000fd5b505050506040513d601f19601f8201168201806040525081019062000aa9919062002322565b50600060056000878152602001908152602001600020905083602001518160010160006101000a81548173ffffffffffffffffffffffffffffffffffffffff021916908373ffffffffffffffffffffffffffffffffffffffff1602179055508467ffffffffffffffff168160030181905550858160000181905550818160040160006101000a81548173ffffffffffffffffffffffffffffffffffffffff021916908373ffffffffffffffffffffffffffffffffffffffff160217905550338160020160006101000a81548173ffffffffffffffffffffffffffffffffffffffff021916908373ffffffffffffffffffffffffffffffffffffffff16021790555062000bb78633876200191a565b7f1568630b8caf435de7e09a0e43e6c8ff6a9496c2ba6b8c16d53c923d2f3dfd94828760405162000bea929190620022b8565b60405180910390a1505050505050565b3373ffffffffffffffffffffffffffffffffffffffff163273ffffffffffffffffffffffffffffffffffffffff161462000c6b576040517f08c379a000000000000000000000000000000000000000000000000000000000815260040162000c6290620023b5565b60405180910390fd5b62000c768162000ebb565b73ffffffffffffffffffffffffffffffffffffffff163373ffffffffffffffffffffffffffffffffffffffff161462000ce6576040517f08c379a000000000000000000000000000000000000000000000000000000000815260040162000cdd906200279a565b60405180910390fd5b62000cf181620017db565b73ffffffffffffffffffffffffffffffffffffffff16600073ffffffffffffffffffffffffffffffffffffffff161462000d62576040517f08c379a000000000000000000000000000000000000000000000000000000000815260040162000d59906200280c565b60405180910390fd5b600360008281526020019081526020016000206000808201600090556001820160006101000a81549073ffffffffffffffffffffffffffffffffffffffff0219169055600282016000905550506004600082815260200190815260200160002060006101000a81549073ffffffffffffffffffffffffffffffffffffffff0219169055600260009054906101000a900473ffffffffffffffffffffffffffffffffffffffff1673ffffffffffffffffffffffffffffffffffffffff166342842e0e3033846040518463ffffffff1660e01b815260040162000e46939291906200282e565b600060405180830381600087803b15801562000e6157600080fd5b505af115801562000e76573d6000803e3d6000fd5b505050507fb763f9124a4e3a049fc753164464a052434269e622b70ddce226cb619fb6d6553382600060405162000eb093929190620028ae565b60405180910390a150565b60006004600083815260200190815260200160002060009054906101000a900473ffffffffffffffffffffffffffffffffffffffff169050919050565b60066020528060005260406000206000915090505481565b62000f2185858585853330620019f5565b84600660003373ffffffffffffffffffffffffffffffffffffffff1673ffffffffffffffffffffffffffffffffffffffff168152602001908152602001600020600082825462000f729190620028eb565b925050819055503373ffffffffffffffffffffffffffffffffffffffff167fe1fffcc4923d04b559f4d29a8bfc6cda04eb5b0d3c460751c2402c5c5cc9109c8660405162000fc1919062001fab565b60405180910390a25050505050565b600080600083815260200190815260200160002060000160149054906101000a900467ffffffffffffffff1667ffffffffffffffff169050919050565b60046020528060005260406000206000915054906101000a900473ffffffffffffffffffffffffffffffffffffffff1681565b3373ffffffffffffffffffffffffffffffffffffffff163273ffffffffffffffffffffffffffffffffffffffff1614620010b1576040517f08c379a0000000000000000000000000000000000000000000000000000000008152600401620010a890620023b5565b60405180910390fd5b620010bc8762000ebb565b73ffffffffffffffffffffffffffffffffffffffff16600073ffffffffffffffffffffffffffffffffffffffff1614156200112e576040517f08c379a0000000000000000000000000000000000000000000000000000000008152600401620011259062002427565b60405180910390fd5b600060036000898152602001908152602001600020604051806060016040529081600082015481526020016001820160009054906101000a900473ffffffffffffffffffffffffffffffffffffffff1673ffffffffffffffffffffffffffffffffffffffff1673ffffffffffffffffffffffffffffffffffffffff1681526020016002820154815250509050806040015186101562001204576040517f08c379a0000000000000000000000000000000000000000000000000000000008152600401620011fb906200250b565b60405180910390fd5b620012198686868686338760200151620019f5565b620012268833896200191a565b7f1568630b8caf435de7e09a0e43e6c8ff6a9496c2ba6b8c16d53c923d2f3dfd946000896040516200125a929190620022b8565b60405180910390a15050505050505050565b3373ffffffffffffffffffffffffffffffffffffffff163273ffffffffffffffffffffffffffffffffffffffff1614620012dd576040517f08c379a0000000000000000000000000000000000000000000000000000000008152600401620012d490620023b5565b60405180910390fd5b600260009054906101000a900473ffffffffffffffffffffffffffffffffffffffff1673ffffffffffffffffffffffffffffffffffffffff16636352211e836040518263ffffffff1660e01b81526004016200133a919062001fab565b60206040518083038186803b1580156200135357600080fd5b505afa15801562001368573d6000803e3d6000fd5b505050506040513d601f19601f820116820180604052508101906200138e91906200295f565b73ffffffffffffffffffffffffffffffffffffffff163373ffffffffffffffffffffffffffffffffffffffff161480620013fd5750620013ce8262000ebb565b73ffffffffffffffffffffffffffffffffffffffff163373ffffffffffffffffffffffffffffffffffffffff16145b6200143f576040517f08c379a000000000000000000000000000000000000000000000000000000000815260040162001436906200279a565b60405180910390fd5b600260009054906101000a900473ffffffffffffffffffffffffffffffffffffffff1673ffffffffffffffffffffffffffffffffffffffff16636352211e836040518263ffffffff1660e01b81526004016200149c919062001fab565b60206040518083038186803b158015620014b557600080fd5b505afa158015620014ca573d6000803e3d6000fd5b505050506040513d601f19601f82011682018060405250810190620014f091906200295f565b73ffffffffffffffffffffffffffffffffffffffff163373ffffffffffffffffffffffffffffffffffffffff161415620016db57600260009054906101000a900473ffffffffffffffffffffffffffffffffffffffff1673ffffffffffffffffffffffffffffffffffffffff1663081812fc836040518263ffffffff1660e01b815260040162001581919062001fab565b60206040518083038186803b1580156200159a57600080fd5b505afa158015620015af573d6000803e3d6000fd5b505050506040513d601f19601f82011682018060405250810190620015d591906200295f565b73ffffffffffffffffffffffffffffffffffffffff163073ffffffffffffffffffffffffffffffffffffffff161462001645576040517f08c379a00000000000000000000000000000000000000000000000000000000081526004016200163c90620029e1565b60405180910390fd5b600260009054906101000a900473ffffffffffffffffffffffffffffffffffffffff1673ffffffffffffffffffffffffffffffffffffffff166342842e0e3330856040518463ffffffff1660e01b8152600401620016a6939291906200282e565b600060405180830381600087803b158015620016c157600080fd5b505af1158015620016d6573d6000803e3d6000fd5b505050505b6000600360008481526020019081526020016000209050828160000181905550338160010160006101000a81548173ffffffffffffffffffffffffffffffffffffffff021916908373ffffffffffffffffffffffffffffffffffffffff160217905550818160020181905550336004600085815260200190815260200160002060006101000a81548173ffffffffffffffffffffffffffffffffffffffff021916908373ffffffffffffffffffffffffffffffffffffffff1602179055507fb763f9124a4e3a049fc753164464a052434269e622b70ddce226cb619fb6d655338484604051620017ce9392919062002a03565b60405180910390a1505050565b60004260008084815260200190815260200160002060000160149054906101000a900467ffffffffffffffff1667ffffffffffffffff1610620018565760008083815260200190815260200160002060000160009054906101000a900473ffffffffffffffffffffffffffffffffffffffff1690506200185b565b600090505b919050565b60056020528060005260406000206000915090508060000154908060010160009054906101000a900473ffffffffffffffffffffffffffffffffffffffff16908060020160009054906101000a900473ffffffffffffffffffffffffffffffffffffffff16908060030154908060040160009054906101000a900473ffffffffffffffffffffffffffffffffffffffff16905085565b7f9f2df0fed2c77648de5860a4cc508cd0818c85b8b8a1ab4ceeef8d981c8956a681565b60008060008581526020019081526020016000209050828160000160006101000a81548173ffffffffffffffffffffffffffffffffffffffff021916908373ffffffffffffffffffffffffffffffffffffffff160217905550818160000160146101000a81548167ffffffffffffffff021916908367ffffffffffffffff1602179055508273ffffffffffffffffffffffffffffffffffffffff16847f4e06b4e7000e659094299b3533b47b6aa8ad048e95e872d23d1f4ee55af89cfe84604051620019e7919062002a40565b60405180910390a350505050565b600160009054906101000a900473ffffffffffffffffffffffffffffffffffffffff1673ffffffffffffffffffffffffffffffffffffffff1663d505accf33308a8a8a8a8a6040518863ffffffff1660e01b815260040162001a5e979695949392919062002a6e565b600060405180830381600087803b15801562001a7957600080fd5b505af115801562001a8e573d6000803e3d6000fd5b50505050600160009054906101000a900473ffffffffffffffffffffffffffffffffffffffff1673ffffffffffffffffffffffffffffffffffffffff166323b872dd83838a6040518463ffffffff1660e01b815260040162001af3939291906200282e565b600060405180830381600087803b15801562001b0e57600080fd5b505af115801562001b23573d6000803e3d6000fd5b5050505050505050505050565b611bef8062002aec83390190565b6000604051905090565b600080fd5b600080fd5b600073ffffffffffffffffffffffffffffffffffffffff82169050919050565b600062001b7f8262001b52565b9050919050565b62001b918162001b72565b811462001b9d57600080fd5b50565b60008135905062001bb18162001b86565b92915050565b6000819050919050565b62001bcc8162001bb7565b811462001bd857600080fd5b50565b60008135905062001bec8162001bc1565b92915050565b600080fd5b600080fd5b6000601f19601f8301169050919050565b7f4e487b7100000000000000000000000000000000000000000000000000000000600052604160045260246000fd5b62001c478262001bfc565b810181811067ffffffffffffffff8211171562001c695762001c6862001c0d565b5b80604052505050565b600062001c7e62001b3e565b905062001c8c828262001c3c565b919050565b600067ffffffffffffffff82111562001caf5762001cae62001c0d565b5b62001cba8262001bfc565b9050602081019050919050565b82818337600083830152505050565b600062001ced62001ce78462001c91565b62001c72565b90508281526020810184848401111562001d0c5762001d0b62001bf7565b5b62001d1984828562001cc7565b509392505050565b600082601f83011262001d395762001d3862001bf2565b5b813562001d4b84826020860162001cd6565b91505092915050565b6000806000806080858703121562001d715762001d7062001b48565b5b600062001d818782880162001ba0565b945050602062001d948782880162001ba0565b935050604062001da78782880162001bdb565b925050606085013567ffffffffffffffff81111562001dcb5762001dca62001b4d565b5b62001dd98782880162001d21565b91505092959194509250565b60007fffffffff0000000000000000000000000000000000000000000000000000000082169050919050565b62001e1c8162001de5565b82525050565b600060208201905062001e39600083018462001e11565b92915050565b60006020828403121562001e585762001e5762001b48565b5b600062001e688482850162001bdb565b91505092915050565b62001e7c8162001bb7565b82525050565b62001e8d8162001b72565b82525050565b600060608201905062001eaa600083018662001e71565b62001eb9602083018562001e82565b62001ec8604083018462001e71565b949350505050565b600067ffffffffffffffff82169050919050565b62001eef8162001ed0565b811462001efb57600080fd5b50565b60008135905062001f0f8162001ee4565b92915050565b6000806040838503121562001f2f5762001f2e62001b48565b5b600062001f3f8582860162001bdb565b925050602062001f528582860162001efe565b9150509250929050565b600060208201905062001f73600083018462001e82565b92915050565b60006020828403121562001f925762001f9162001b48565b5b600062001fa28482850162001ba0565b91505092915050565b600060208201905062001fc2600083018462001e71565b92915050565b600060ff82169050919050565b62001fe08162001fc8565b811462001fec57600080fd5b50565b600081359050620020008162001fd5565b92915050565b6000819050919050565b6200201b8162002006565b81146200202757600080fd5b50565b6000813590506200203b8162002010565b92915050565b600080600080600060a0868803121562002060576200205f62001b48565b5b6000620020708882890162001bdb565b9550506020620020838882890162001bdb565b9450506040620020968882890162001fef565b9350506060620020a9888289016200202a565b9250506080620020bc888289016200202a565b9150509295509295909350565b600080600080600080600060e0888a031215620020eb57620020ea62001b48565b5b6000620020fb8a828b0162001bdb565b97505060206200210e8a828b0162001efe565b9650506040620021218a828b0162001bdb565b9550506060620021348a828b0162001bdb565b9450506080620021478a828b0162001fef565b93505060a06200215a8a828b016200202a565b92505060c06200216d8a828b016200202a565b91505092959891949750929550565b6000806040838503121562002196576200219562001b48565b5b6000620021a68582860162001bdb565b9250506020620021b98582860162001bdb565b9150509250929050565b600060a082019050620021da600083018862001e71565b620021e9602083018762001e82565b620021f8604083018662001e82565b62002207606083018562001e71565b62002216608083018462001e82565b9695505050505050565b6200222b8162002006565b82525050565b600060208201905062002248600083018462002220565b92915050565b7f4e487b7100000000000000000000000000000000000000000000000000000000600052601160045260246000fd5b60006200228a8262001bb7565b9150620022978362001bb7565b925082821015620022ad57620022ac6200224e565b5b828203905092915050565b6000604082019050620022cf600083018562001e82565b620022de602083018462001e71565b9392505050565b60008115159050919050565b620022fc81620022e5565b81146200230857600080fd5b50565b6000815190506200231c81620022f1565b92915050565b6000602082840312156200233b576200233a62001b48565b5b60006200234b848285016200230b565b91505092915050565b600082825260208201905092915050565b7f5468652063616c6c657220697320616e6f7468657220636f6e74726163740000600082015250565b60006200239d601e8362002354565b9150620023aa8262002365565b602082019050919050565b60006020820190508181036000830152620023d0816200238e565b9050919050565b7f4e465420646f6573206e6f7420656e747275737420746865206c656173650000600082015250565b60006200240f601e8362002354565b91506200241c82620023d7565b602082019050919050565b60006020820190508181036000830152620024428162002400565b9050919050565b7f4e465420686173206265656e206c656173656400000000000000000000000000600082015250565b60006200248160138362002354565b91506200248e8262002449565b602082019050919050565b60006020820190508181036000830152620024b48162002472565b9050919050565b7f496e73756666696369656e742062616c616e6365000000000000000000000000600082015250565b6000620024f360148362002354565b91506200250082620024bb565b602082019050919050565b600060208201905081810360008301526200252681620024e4565b9050919050565b60008160601b9050919050565b600062002547826200252d565b9050919050565b60006200255b826200253a565b9050919050565b62002577620025718262001b72565b6200254e565b82525050565b6000819050919050565b6200259c620025968262001bb7565b6200257d565b82525050565b60008160c01b9050919050565b6000620025bc82620025a2565b9050919050565b620025d8620025d28262001ed0565b620025af565b82525050565b6000620025ec828762002562565b601482019150620025fe828662002562565b60148201915062002610828562002587565b602082019150620026228284620025c3565b60088201915081905095945050505050565b6000819050919050565b60006200265f62002659620026538462001b52565b62002634565b62001b52565b9050919050565b600062002673826200263e565b9050919050565b6000620026878262002666565b9050919050565b62002699816200267a565b82525050565b620026aa8162001ed0565b82525050565b600060c082019050620026c760008301896200268e565b620026d6602083018862001e82565b620026e5604083018762001e82565b620026f460608301866200269f565b62002703608083018562001e71565b6200271260a083018462001e71565b979650505050505050565b600060408201905062002734600083018562002220565b62002743602083018462001e82565b9392505050565b7f6c6573736f722063616c6c6572206973206e6f74206f776e6572000000000000600082015250565b600062002782601a8362002354565b91506200278f826200274a565b602082019050919050565b60006020820190508181036000830152620027b58162002773565b9050919050565b7f4e46547320617265206265696e672072656e7465640000000000000000000000600082015250565b6000620027f460158362002354565b91506200280182620027bc565b602082019050919050565b600060208201905081810360008301526200282781620027e5565b9050919050565b600060608201905062002845600083018662001e82565b62002854602083018562001e82565b62002863604083018462001e71565b949350505050565b6000819050919050565b600062002896620028906200288a846200286b565b62002634565b62001bb7565b9050919050565b620028a88162002875565b82525050565b6000606082019050620028c5600083018662001e82565b620028d4602083018562001e71565b620028e360408301846200289d565b949350505050565b6000620028f88262001bb7565b9150620029058362001bb7565b9250827fffffffffffffffffffffffffffffffffffffffffffffffffffffffffffffffff038211156200293d576200293c6200224e565b5b828201905092915050565b600081519050620029598162001b86565b92915050565b60006020828403121562002978576200297762001b48565b5b6000620029888482850162002948565b91505092915050565b7f7472616e736665722063616c6c6572206973206e6f7420617070726f76656400600082015250565b6000620029c9601f8362002354565b9150620029d68262002991565b602082019050919050565b60006020820190508181036000830152620029fc81620029ba565b9050919050565b600060608201905062002a1a600083018662001e82565b62002a29602083018562001e71565b62002a38604083018462001e71565b949350505050565b600060208201905062002a5760008301846200269f565b92915050565b62002a688162001fc8565b82525050565b600060e08201905062002a85600083018a62001e82565b62002a94602083018962001e82565b62002aa3604083018862001e71565b62002ab2606083018762001e71565b62002ac1608083018662002a5d565b62002ad060a083018562002220565b62002adf60c083018462002220565b9897505050505050505056fe60806040523480156200001157600080fd5b5060405162001bef38038062001bef833981810160405281019062000037919062000433565b85600160006101000a81548173ffffffffffffffffffffffffffffffffffffffff021916908373ffffffffffffffffffffffffffffffffffffffff16021790555084600260006101000a81548173ffffffffffffffffffffffffffffffffffffffff021916908373ffffffffffffffffffffffffffffffffffffffff16021790555083600360006101000a81548173ffffffffffffffffffffffffffffffffffffffff021916908373ffffffffffffffffffffffffffffffffffffffff16021790555082600360146101000a81548167ffffffffffffffff021916908367ffffffffffffffff1602179055508160058190555080600481905550620001637f14823911f2da1b49f045a0929a60b8c1f2a7fc8c06c7284ca3e8ab4e193a08c885620001a160201b60201c565b620001957fb19546dff01e856fb3f010c267a7b1c60363cf8a4664e21cc89c26224620214e86620001a160201b60201c565b505050505050620004cf565b620001b382826200029260201b60201c565b6200028e57600160008084815260200190815260200160002060000160008373ffffffffffffffffffffffffffffffffffffffff1673ffffffffffffffffffffffffffffffffffffffff16815260200190815260200160002060006101000a81548160ff02191690831515021790555062000233620002fc60201b60201c565b73ffffffffffffffffffffffffffffffffffffffff168173ffffffffffffffffffffffffffffffffffffffff16837f2f8788117e7eff1d82e926ec794901d17c78024a50270940304540a733656f0d60405160405180910390a45b5050565b600080600084815260200190815260200160002060000160008373ffffffffffffffffffffffffffffffffffffffff1673ffffffffffffffffffffffffffffffffffffffff16815260200190815260200160002060009054906101000a900460ff16905092915050565b600033905090565b600080fd5b600073ffffffffffffffffffffffffffffffffffffffff82169050919050565b6000620003368262000309565b9050919050565b60006200034a8262000329565b9050919050565b6200035c816200033d565b81146200036857600080fd5b50565b6000815190506200037c8162000351565b92915050565b6200038d8162000329565b81146200039957600080fd5b50565b600081519050620003ad8162000382565b92915050565b600067ffffffffffffffff82169050919050565b620003d281620003b3565b8114620003de57600080fd5b50565b600081519050620003f281620003c7565b92915050565b6000819050919050565b6200040d81620003f8565b81146200041957600080fd5b50565b6000815190506200042d8162000402565b92915050565b60008060008060008060c0878903121562000453576200045262000304565b5b60006200046389828a016200036b565b96505060206200047689828a016200039c565b95505060406200048989828a016200039c565b94505060606200049c89828a01620003e1565b9350506080620004af89828a016200041c565b92505060a0620004c289828a016200041c565b9150509295509295509295565b61171080620004df6000396000f3fe608060405234801561001057600080fd5b50600436106100f55760003560e01c806375b238fc11610097578063a217fddf11610066578063a217fddf14610274578063d547741f14610292578063e58378bb146102ae578063fbb27dce146102cc576100f5565b806375b238fc146101ec57806378a210351461020a57806391d1485414610228578063a0712d6814610258576100f5565b8063248a9ca3116100d3578063248a9ca3146101665780632f2ff15d1461019657806336568abe146101b25780634c39a749146101ce576100f5565b806301ffc9a7146100fa578063131191611461012a57806317d70f7c14610148575b600080fd5b610114600480360381019061010f9190610f45565b6102ea565b6040516101219190610f8d565b60405180910390f35b610132610364565b60405161013f9190610fc1565b60405180910390f35b610150610388565b60405161015d9190610ff5565b60405180910390f35b610180600480360381019061017b919061103c565b61038e565b60405161018d9190610fc1565b60405180910390f35b6101b060048036038101906101ab91906110c7565b6103ad565b005b6101cc60048036038101906101c791906110c7565b6103ce565b005b6101d6610451565b6040516101e39190611116565b60405180910390f35b6101f4610477565b6040516102019190610fc1565b60405180910390f35b61021261049b565b60405161021f9190611116565b60405180910390f35b610242600480360381019061023d91906110c7565b6104c1565b60405161024f9190610f8d565b60405180910390f35b610272600480360381019061026d919061115d565b61052b565b005b61027c610976565b6040516102899190610fc1565b60405180910390f35b6102ac60048036038101906102a791906110c7565b61097d565b005b6102b661099e565b6040516102c39190610fc1565b60405180910390f35b6102d46109c2565b6040516102e19190610ff5565b60405180910390f35b60007f7965db0b000000000000000000000000000000000000000000000000000000007bffffffffffffffffffffffffffffffffffffffffffffffffffffffff1916827bffffffffffffffffffffffffffffffffffffffffffffffffffffffff1916148061035d575061035c826109c8565b5b9050919050565b7f14823911f2da1b49f045a0929a60b8c1f2a7fc8c06c7284ca3e8ab4e193a08c881565b60055481565b6000806000838152602001908152602001600020600101549050919050565b6103b68261038e565b6103bf81610a32565b6103c98383610a46565b505050565b6103d6610b26565b73ffffffffffffffffffffffffffffffffffffffff168173ffffffffffffffffffffffffffffffffffffffff1614610443576040517f08c379a000000000000000000000000000000000000000000000000000000000815260040161043a9061120d565b60405180910390fd5b61044d8282610b2e565b5050565b600260009054906101000a900473ffffffffffffffffffffffffffffffffffffffff1681565b7fa49807205ce4d355092ef5a8a18f56e8913cf4a201fbe287825b095693c2177581565b600360009054906101000a900473ffffffffffffffffffffffffffffffffffffffff1681565b600080600084815260200190815260200160002060000160008373ffffffffffffffffffffffffffffffffffffffff1673ffffffffffffffffffffffffffffffffffffffff16815260200190815260200160002060009054906101000a900460ff16905092915050565b7f14823911f2da1b49f045a0929a60b8c1f2a7fc8c06c7284ca3e8ab4e193a08c861055581610a32565b600360149054906101000a900467ffffffffffffffff1667ffffffffffffffff1642106105b7576040517f08c379a00000000000000000000000000000000000000000000000000000000081526004016105ae90611279565b60405180910390fd5b600160009054906101000a900473ffffffffffffffffffffffffffffffffffffffff1673ffffffffffffffffffffffffffffffffffffffff1663a0712d68836040518263ffffffff1660e01b81526004016106129190610ff5565b600060405180830381600087803b15801561062c57600080fd5b505af1158015610640573d6000803e3d6000fd5b505050506004546006541015610866576004548260065461066191906112c8565b101561075757600160009054906101000a900473ffffffffffffffffffffffffffffffffffffffff1673ffffffffffffffffffffffffffffffffffffffff1663a9059cbb600260009054906101000a900473ffffffffffffffffffffffffffffffffffffffff16846040518363ffffffff1660e01b81526004016106e692919061131e565b602060405180830381600087803b15801561070057600080fd5b505af1158015610714573d6000803e3d6000fd5b505050506040513d601f19601f820116820180604052508101906107389190611373565b50816006600082825461074b91906112c8565b92505081905550610861565b600160009054906101000a900473ffffffffffffffffffffffffffffffffffffffff1673ffffffffffffffffffffffffffffffffffffffff1663a9059cbb600260009054906101000a900473ffffffffffffffffffffffffffffffffffffffff166006546004546107c891906113a0565b6040518363ffffffff1660e01b81526004016107e592919061131e565b602060405180830381600087803b1580156107ff57600080fd5b505af1158015610813573d6000803e3d6000fd5b505050506040513d601f19601f820116820180604052508101906108379190611373565b5060065460045461084891906113a0565b6006600082825461085991906112c8565b925050819055505b610939565b600160009054906101000a900473ffffffffffffffffffffffffffffffffffffffff1673ffffffffffffffffffffffffffffffffffffffff1663a9059cbb600360009054906101000a900473ffffffffffffffffffffffffffffffffffffffff16846040518363ffffffff1660e01b81526004016108e592919061131e565b602060405180830381600087803b1580156108ff57600080fd5b505af1158015610913573d6000803e3d6000fd5b505050506040513d601f19601f820116820180604052508101906109379190611373565b505b7fa462878f8ce8141ac1489e87f82365103e11ad923ae4ffbb46bd39f90ba103de338360405161096a92919061131e565b60405180910390a15050565b6000801b81565b6109868261038e565b61098f81610a32565b6109998383610b2e565b505050565b7fb19546dff01e856fb3f010c267a7b1c60363cf8a4664e21cc89c26224620214e81565b60065481565b60007f01ffc9a7000000000000000000000000000000000000000000000000000000007bffffffffffffffffffffffffffffffffffffffffffffffffffffffff1916827bffffffffffffffffffffffffffffffffffffffffffffffffffffffff1916149050919050565b610a4381610a3e610b26565b610c0f565b50565b610a5082826104c1565b610b2257600160008084815260200190815260200160002060000160008373ffffffffffffffffffffffffffffffffffffffff1673ffffffffffffffffffffffffffffffffffffffff16815260200190815260200160002060006101000a81548160ff021916908315150217905550610ac7610b26565b73ffffffffffffffffffffffffffffffffffffffff168173ffffffffffffffffffffffffffffffffffffffff16837f2f8788117e7eff1d82e926ec794901d17c78024a50270940304540a733656f0d60405160405180910390a45b5050565b600033905090565b610b3882826104c1565b15610c0b57600080600084815260200190815260200160002060000160008373ffffffffffffffffffffffffffffffffffffffff1673ffffffffffffffffffffffffffffffffffffffff16815260200190815260200160002060006101000a81548160ff021916908315150217905550610bb0610b26565b73ffffffffffffffffffffffffffffffffffffffff168173ffffffffffffffffffffffffffffffffffffffff16837ff6391f5c32d9c69d2a47ea670b442974b53935d1edc7fd64eb21e047a839171b60405160405180910390a45b5050565b610c1982826104c1565b610ca857610c3e8173ffffffffffffffffffffffffffffffffffffffff166014610cac565b610c4c8360001c6020610cac565b604051602001610c5d9291906114e6565b6040516020818303038152906040526040517f08c379a0000000000000000000000000000000000000000000000000000000008152600401610c9f919061156a565b60405180910390fd5b5050565b606060006002836002610cbf919061158c565b610cc991906112c8565b67ffffffffffffffff811115610ce257610ce16115e6565b5b6040519080825280601f01601f191660200182016040528015610d145781602001600182028036833780820191505090505b5090507f300000000000000000000000000000000000000000000000000000000000000081600081518110610d4c57610d4b611615565b5b60200101907effffffffffffffffffffffffffffffffffffffffffffffffffffffffffffff1916908160001a9053507f780000000000000000000000000000000000000000000000000000000000000081600181518110610db057610daf611615565b5b60200101907effffffffffffffffffffffffffffffffffffffffffffffffffffffffffffff1916908160001a90535060006001846002610df0919061158c565b610dfa91906112c8565b90505b6001811115610e9a577f3031323334353637383961626364656600000000000000000000000000000000600f861660108110610e3c57610e3b611615565b5b1a60f81b828281518110610e5357610e52611615565b5b60200101907effffffffffffffffffffffffffffffffffffffffffffffffffffffffffffff1916908160001a905350600485901c945080610e9390611644565b9050610dfd565b5060008414610ede576040517f08c379a0000000000000000000000000000000000000000000000000000000008152600401610ed5906116ba565b60405180910390fd5b8091505092915050565b600080fd5b60007fffffffff0000000000000000000000000000000000000000000000000000000082169050919050565b610f2281610eed565b8114610f2d57600080fd5b50565b600081359050610f3f81610f19565b92915050565b600060208284031215610f5b57610f5a610ee8565b5b6000610f6984828501610f30565b91505092915050565b60008115159050919050565b610f8781610f72565b82525050565b6000602082019050610fa26000830184610f7e565b92915050565b6000819050919050565b610fbb81610fa8565b82525050565b6000602082019050610fd66000830184610fb2565b92915050565b6000819050919050565b610fef81610fdc565b82525050565b600060208201905061100a6000830184610fe6565b92915050565b61101981610fa8565b811461102457600080fd5b50565b60008135905061103681611010565b92915050565b60006020828403121561105257611051610ee8565b5b600061106084828501611027565b91505092915050565b600073ffffffffffffffffffffffffffffffffffffffff82169050919050565b600061109482611069565b9050919050565b6110a481611089565b81146110af57600080fd5b50565b6000813590506110c18161109b565b92915050565b600080604083850312156110de576110dd610ee8565b5b60006110ec85828601611027565b92505060206110fd858286016110b2565b9150509250929050565b61111081611089565b82525050565b600060208201905061112b6000830184611107565b92915050565b61113a81610fdc565b811461114557600080fd5b50565b60008135905061115781611131565b92915050565b60006020828403121561117357611172610ee8565b5b600061118184828501611148565b91505092915050565b600082825260208201905092915050565b7f416363657373436f6e74726f6c3a2063616e206f6e6c792072656e6f756e636560008201527f20726f6c657320666f722073656c660000000000000000000000000000000000602082015250565b60006111f7602f8361118a565b91506112028261119b565b604082019050919050565b60006020820190508181036000830152611226816111ea565b9050919050565b7f41677265656d656e742065787069726564000000000000000000000000000000600082015250565b600061126360118361118a565b915061126e8261122d565b602082019050919050565b6000602082019050818103600083015261129281611256565b9050919050565b7f4e487b7100000000000000000000000000000000000000000000000000000000600052601160045260246000fd5b60006112d382610fdc565b91506112de83610fdc565b9250827fffffffffffffffffffffffffffffffffffffffffffffffffffffffffffffffff0382111561131357611312611299565b5b828201905092915050565b60006040820190506113336000830185611107565b6113406020830184610fe6565b9392505050565b61135081610f72565b811461135b57600080fd5b50565b60008151905061136d81611347565b92915050565b60006020828403121561138957611388610ee8565b5b60006113978482850161135e565b91505092915050565b60006113ab82610fdc565b91506113b683610fdc565b9250828210156113c9576113c8611299565b5b828203905092915050565b600081905092915050565b7f416363657373436f6e74726f6c3a206163636f756e7420000000000000000000600082015250565b60006114156017836113d4565b9150611420826113df565b601782019050919050565b600081519050919050565b60005b83811015611454578082015181840152602081019050611439565b83811115611463576000848401525b50505050565b60006114748261142b565b61147e81856113d4565b935061148e818560208601611436565b80840191505092915050565b7f206973206d697373696e6720726f6c6520000000000000000000000000000000600082015250565b60006114d06011836113d4565b91506114db8261149a565b601182019050919050565b60006114f182611408565b91506114fd8285611469565b9150611508826114c3565b91506115148284611469565b91508190509392505050565b6000601f19601f8301169050919050565b600061153c8261142b565b611546818561118a565b9350611556818560208601611436565b61155f81611520565b840191505092915050565b600060208201905081810360008301526115848184611531565b905092915050565b600061159782610fdc565b91506115a283610fdc565b9250817fffffffffffffffffffffffffffffffffffffffffffffffffffffffffffffffff04831182151516156115db576115da611299565b5b828202905092915050565b7f4e487b7100000000000000000000000000000000000000000000000000000000600052604160045260246000fd5b7f4e487b7100000000000000000000000000000000000000000000000000000000600052603260045260246000fd5b600061164f82610fdc565b9150600082141561166357611662611299565b5b600182039050919050565b7f537472696e67733a20686578206c656e67746820696e73756666696369656e74600082015250565b60006116a460208361118a565b91506116af8261166e565b602082019050919050565b600060208201905081810360008301526116d381611697565b905091905056fea26469706673582212201c6a3726e34e761b31df455e1a7b83cf0adceb5b8f26050c199618a8e94db1a264736f6c63430008090033a2646970667358221220bebdf7974cd493857763e9740dd6893c8aa57227b173dfed4d30b47023f9106064736f6c63430008090033",
  "linkReferences": {},
  "deployedLinkReferences": {}
}