{
  "_format": "hh-sol-artifact-1",
  "contractName": "LeaseAgreement",
  "sourceName": "contracts/LeaseAgreement.sol",
  "abi": [
    {
      "inputs": [
        {
          "internalType": "contract IGoldToken",
          "name": "_goldToken",
          "type": "address"
        },
        {
          "internalType": "address",
          "name": "_nftOwner",
          "type": "address"
        },
        {
          "internalType": "address",
          "name": "_nftUser",
          "type": "address"
        },
        {
          "internalType": "uint64",
          "name": "_expires",
          "type": "uint64"
        },
        {
          "internalType": "uint256",
          "name": "_tokenId",
          "type": "uint256"
        },
        {
          "internalType": "uint256",
          "name": "_price",
          "type": "uint256"
        }
      ],
      "stateMutability": "nonpayable",
      "type": "constructor"
    },
    {
      "anonymous": false,
      "inputs": [
        {
          "indexed": false,
          "internalType": "address",
          "name": "from",
          "type": "address"
        },
        {
          "indexed": false,
          "internalType": "uint256",
          "name": "quantity",
          "type": "uint256"
        }
      ],
      "name": "ExchangeGoldToken",
      "type": "event"
    },
    {
      "anonymous": false,
      "inputs": [
        {
          "indexed": true,
          "internalType": "bytes32",
          "name": "role",
          "type": "bytes32"
        },
        {
          "indexed": true,
          "internalType": "bytes32",
          "name": "previousAdminRole",
          "type": "bytes32"
        },
        {
          "indexed": true,
          "internalType": "bytes32",
          "name": "newAdminRole",
          "type": "bytes32"
        }
      ],
      "name": "RoleAdminChanged",
      "type": "event"
    },
    {
      "anonymous": false,
      "inputs": [
        {
          "indexed": true,
          "internalType": "bytes32",
          "name": "role",
          "type": "bytes32"
        },
        {
          "indexed": true,
          "internalType": "address",
          "name": "account",
          "type": "address"
        },
        {
          "indexed": true,
          "internalType": "address",
          "name": "sender",
          "type": "address"
        }
      ],
      "name": "RoleGranted",
      "type": "event"
    },
    {
      "anonymous": false,
      "inputs": [
        {
          "indexed": true,
          "internalType": "bytes32",
          "name": "role",
          "type": "bytes32"
        },
        {
          "indexed": true,
          "internalType": "address",
          "name": "account",
          "type": "address"
        },
        {
          "indexed": true,
          "internalType": "address",
          "name": "sender",
          "type": "address"
        }
      ],
      "name": "RoleRevoked",
      "type": "event"
    },
    {
      "inputs": [],
      "name": "ADMIN_ROLE",
      "outputs": [
        {
          "internalType": "bytes32",
          "name": "",
          "type": "bytes32"
        }
      ],
      "stateMutability": "view",
      "type": "function"
    },
    {
      "inputs": [],
      "name": "DEFAULT_ADMIN_ROLE",
      "outputs": [
        {
          "internalType": "bytes32",
          "name": "",
          "type": "bytes32"
        }
      ],
      "stateMutability": "view",
      "type": "function"
    },
    {
      "inputs": [],
      "name": "OWNER_ROLE",
      "outputs": [
        {
          "internalType": "bytes32",
          "name": "",
          "type": "bytes32"
        }
      ],
      "stateMutability": "view",
      "type": "function"
    },
    {
      "inputs": [],
      "name": "USER_ROLE",
      "outputs": [
        {
          "internalType": "bytes32",
          "name": "",
          "type": "bytes32"
        }
      ],
      "stateMutability": "view",
      "type": "function"
    },
    {
      "inputs": [
        {
          "internalType": "bytes32",
          "name": "role",
          "type": "bytes32"
        }
      ],
      "name": "getRoleAdmin",
      "outputs": [
        {
          "internalType": "bytes32",
          "name": "",
          "type": "bytes32"
        }
      ],
      "stateMutability": "view",
      "type": "function"
    },
    {
      "inputs": [
        {
          "internalType": "bytes32",
          "name": "role",
          "type": "bytes32"
        },
        {
          "internalType": "address",
          "name": "account",
          "type": "address"
        }
      ],
      "name": "grantRole",
      "outputs": [],
      "stateMutability": "nonpayable",
      "type": "function"
    },
    {
      "inputs": [
        {
          "internalType": "bytes32",
          "name": "role",
          "type": "bytes32"
        },
        {
          "internalType": "address",
          "name": "account",
          "type": "address"
        }
      ],
      "name": "hasRole",
      "outputs": [
        {
          "internalType": "bool",
          "name": "",
          "type": "bool"
        }
      ],
      "stateMutability": "view",
      "type": "function"
    },
    {
      "inputs": [
        {
          "internalType": "uint256",
          "name": "quantity",
          "type": "uint256"
        }
      ],
      "name": "mint",
      "outputs": [],
      "stateMutability": "nonpayable",
      "type": "function"
    },
    {
      "inputs": [],
      "name": "nftOwner",
      "outputs": [
        {
          "internalType": "address",
          "name": "",
          "type": "address"
        }
      ],
      "stateMutability": "view",
      "type": "function"
    },
    {
      "inputs": [],
      "name": "nftUser",
      "outputs": [
        {
          "internalType": "address",
          "name": "",
          "type": "address"
        }
      ],
      "stateMutability": "view",
      "type": "function"
    },
    {
      "inputs": [
        {
          "internalType": "bytes32",
          "name": "role",
          "type": "bytes32"
        },
        {
          "internalType": "address",
          "name": "account",
          "type": "address"
        }
      ],
      "name": "renounceRole",
      "outputs": [],
      "stateMutability": "nonpayable",
      "type": "function"
    },
    {
      "inputs": [],
      "name": "repaid",
      "outputs": [
        {
          "internalType": "uint256",
          "name": "",
          "type": "uint256"
        }
      ],
      "stateMutability": "view",
      "type": "function"
    },
    {
      "inputs": [
        {
          "internalType": "bytes32",
          "name": "role",
          "type": "bytes32"
        },
        {
          "internalType": "address",
          "name": "account",
          "type": "address"
        }
      ],
      "name": "revokeRole",
      "outputs": [],
      "stateMutability": "nonpayable",
      "type": "function"
    },
    {
      "inputs": [
        {
          "internalType": "bytes4",
          "name": "interfaceId",
          "type": "bytes4"
        }
      ],
      "name": "supportsInterface",
      "outputs": [
        {
          "internalType": "bool",
          "name": "",
          "type": "bool"
        }
      ],
      "stateMutability": "view",
      "type": "function"
    },
    {
      "inputs": [],
      "name": "tokenId",
      "outputs": [
        {
          "internalType": "uint256",
          "name": "",
          "type": "uint256"
        }
      ],
      "stateMutability": "view",
      "type": "function"
    }
  ],
  "bytecode": "0x60806040523480156200001157600080fd5b5060405162001bef38038062001bef833981810160405281019062000037919062000433565b85600160006101000a81548173ffffffffffffffffffffffffffffffffffffffff021916908373ffffffffffffffffffffffffffffffffffffffff16021790555084600260006101000a81548173ffffffffffffffffffffffffffffffffffffffff021916908373ffffffffffffffffffffffffffffffffffffffff16021790555083600360006101000a81548173ffffffffffffffffffffffffffffffffffffffff021916908373ffffffffffffffffffffffffffffffffffffffff16021790555082600360146101000a81548167ffffffffffffffff021916908367ffffffffffffffff1602179055508160058190555080600481905550620001637f14823911f2da1b49f045a0929a60b8c1f2a7fc8c06c7284ca3e8ab4e193a08c885620001a160201b60201c565b620001957fb19546dff01e856fb3f010c267a7b1c60363cf8a4664e21cc89c26224620214e86620001a160201b60201c565b505050505050620004cf565b620001b382826200029260201b60201c565b6200028e57600160008084815260200190815260200160002060000160008373ffffffffffffffffffffffffffffffffffffffff1673ffffffffffffffffffffffffffffffffffffffff16815260200190815260200160002060006101000a81548160ff02191690831515021790555062000233620002fc60201b60201c565b73ffffffffffffffffffffffffffffffffffffffff168173ffffffffffffffffffffffffffffffffffffffff16837f2f8788117e7eff1d82e926ec794901d17c78024a50270940304540a733656f0d60405160405180910390a45b5050565b600080600084815260200190815260200160002060000160008373ffffffffffffffffffffffffffffffffffffffff1673ffffffffffffffffffffffffffffffffffffffff16815260200190815260200160002060009054906101000a900460ff16905092915050565b600033905090565b600080fd5b600073ffffffffffffffffffffffffffffffffffffffff82169050919050565b6000620003368262000309565b9050919050565b60006200034a8262000329565b9050919050565b6200035c816200033d565b81146200036857600080fd5b50565b6000815190506200037c8162000351565b92915050565b6200038d8162000329565b81146200039957600080fd5b50565b600081519050620003ad8162000382565b92915050565b600067ffffffffffffffff82169050919050565b620003d281620003b3565b8114620003de57600080fd5b50565b600081519050620003f281620003c7565b92915050565b6000819050919050565b6200040d81620003f8565b81146200041957600080fd5b50565b6000815190506200042d8162000402565b92915050565b60008060008060008060c0878903121562000453576200045262000304565b5b60006200046389828a016200036b565b96505060206200047689828a016200039c565b95505060406200048989828a016200039c565b94505060606200049c89828a01620003e1565b9350506080620004af89828a016200041c565b92505060a0620004c289828a016200041c565b9150509295509295509295565b61171080620004df6000396000f3fe608060405234801561001057600080fd5b50600436106100f55760003560e01c806375b238fc11610097578063a217fddf11610066578063a217fddf14610274578063d547741f14610292578063e58378bb146102ae578063fbb27dce146102cc576100f5565b806375b238fc146101ec57806378a210351461020a57806391d1485414610228578063a0712d6814610258576100f5565b8063248a9ca3116100d3578063248a9ca3146101665780632f2ff15d1461019657806336568abe146101b25780634c39a749146101ce576100f5565b806301ffc9a7146100fa578063131191611461012a57806317d70f7c14610148575b600080fd5b610114600480360381019061010f9190610f45565b6102ea565b6040516101219190610f8d565b60405180910390f35b610132610364565b60405161013f9190610fc1565b60405180910390f35b610150610388565b60405161015d9190610ff5565b60405180910390f35b610180600480360381019061017b919061103c565b61038e565b60405161018d9190610fc1565b60405180910390f35b6101b060048036038101906101ab91906110c7565b6103ad565b005b6101cc60048036038101906101c791906110c7565b6103ce565b005b6101d6610451565b6040516101e39190611116565b60405180910390f35b6101f4610477565b6040516102019190610fc1565b60405180910390f35b61021261049b565b60405161021f9190611116565b60405180910390f35b610242600480360381019061023d91906110c7565b6104c1565b60405161024f9190610f8d565b60405180910390f35b610272600480360381019061026d919061115d565b61052b565b005b61027c610976565b6040516102899190610fc1565b60405180910390f35b6102ac60048036038101906102a791906110c7565b61097d565b005b6102b661099e565b6040516102c39190610fc1565b60405180910390f35b6102d46109c2565b6040516102e19190610ff5565b60405180910390f35b60007f7965db0b000000000000000000000000000000000000000000000000000000007bffffffffffffffffffffffffffffffffffffffffffffffffffffffff1916827bffffffffffffffffffffffffffffffffffffffffffffffffffffffff1916148061035d575061035c826109c8565b5b9050919050565b7f14823911f2da1b49f045a0929a60b8c1f2a7fc8c06c7284ca3e8ab4e193a08c881565b60055481565b6000806000838152602001908152602001600020600101549050919050565b6103b68261038e565b6103bf81610a32565b6103c98383610a46565b505050565b6103d6610b26565b73ffffffffffffffffffffffffffffffffffffffff168173ffffffffffffffffffffffffffffffffffffffff1614610443576040517f08c379a000000000000000000000000000000000000000000000000000000000815260040161043a9061120d565b60405180910390fd5b61044d8282610b2e565b5050565b600260009054906101000a900473ffffffffffffffffffffffffffffffffffffffff1681565b7fa49807205ce4d355092ef5a8a18f56e8913cf4a201fbe287825b095693c2177581565b600360009054906101000a900473ffffffffffffffffffffffffffffffffffffffff1681565b600080600084815260200190815260200160002060000160008373ffffffffffffffffffffffffffffffffffffffff1673ffffffffffffffffffffffffffffffffffffffff16815260200190815260200160002060009054906101000a900460ff16905092915050565b7f14823911f2da1b49f045a0929a60b8c1f2a7fc8c06c7284ca3e8ab4e193a08c861055581610a32565b600360149054906101000a900467ffffffffffffffff1667ffffffffffffffff1642106105b7576040517f08c379a00000000000000000000000000000000000000000000000000000000081526004016105ae90611279565b60405180910390fd5b600160009054906101000a900473ffffffffffffffffffffffffffffffffffffffff1673ffffffffffffffffffffffffffffffffffffffff1663a0712d68836040518263ffffffff1660e01b81526004016106129190610ff5565b600060405180830381600087803b15801561062c57600080fd5b505af1158015610640573d6000803e3d6000fd5b505050506004546006541015610866576004548260065461066191906112c8565b101561075757600160009054906101000a900473ffffffffffffffffffffffffffffffffffffffff1673ffffffffffffffffffffffffffffffffffffffff1663a9059cbb600260009054906101000a900473ffffffffffffffffffffffffffffffffffffffff16846040518363ffffffff1660e01b81526004016106e692919061131e565b602060405180830381600087803b15801561070057600080fd5b505af1158015610714573d6000803e3d6000fd5b505050506040513d601f19601f820116820180604052508101906107389190611373565b50816006600082825461074b91906112c8565b92505081905550610861565b600160009054906101000a900473ffffffffffffffffffffffffffffffffffffffff1673ffffffffffffffffffffffffffffffffffffffff1663a9059cbb600260009054906101000a900473ffffffffffffffffffffffffffffffffffffffff166006546004546107c891906113a0565b6040518363ffffffff1660e01b81526004016107e592919061131e565b602060405180830381600087803b1580156107ff57600080fd5b505af1158015610813573d6000803e3d6000fd5b505050506040513d601f19601f820116820180604052508101906108379190611373565b5060065460045461084891906113a0565b6006600082825461085991906112c8565b925050819055505b610939565b600160009054906101000a900473ffffffffffffffffffffffffffffffffffffffff1673ffffffffffffffffffffffffffffffffffffffff1663a9059cbb600360009054906101000a900473ffffffffffffffffffffffffffffffffffffffff16846040518363ffffffff1660e01b81526004016108e592919061131e565b602060405180830381600087803b1580156108ff57600080fd5b505af1158015610913573d6000803e3d6000fd5b505050506040513d601f19601f820116820180604052508101906109379190611373565b505b7fa462878f8ce8141ac1489e87f82365103e11ad923ae4ffbb46bd39f90ba103de338360405161096a92919061131e565b60405180910390a15050565b6000801b81565b6109868261038e565b61098f81610a32565b6109998383610b2e565b505050565b7fb19546dff01e856fb3f010c267a7b1c60363cf8a4664e21cc89c26224620214e81565b60065481565b60007f01ffc9a7000000000000000000000000000000000000000000000000000000007bffffffffffffffffffffffffffffffffffffffffffffffffffffffff1916827bffffffffffffffffffffffffffffffffffffffffffffffffffffffff1916149050919050565b610a4381610a3e610b26565b610c0f565b50565b610a5082826104c1565b610b2257600160008084815260200190815260200160002060000160008373ffffffffffffffffffffffffffffffffffffffff1673ffffffffffffffffffffffffffffffffffffffff16815260200190815260200160002060006101000a81548160ff021916908315150217905550610ac7610b26565b73ffffffffffffffffffffffffffffffffffffffff168173ffffffffffffffffffffffffffffffffffffffff16837f2f8788117e7eff1d82e926ec794901d17c78024a50270940304540a733656f0d60405160405180910390a45b5050565b600033905090565b610b3882826104c1565b15610c0b57600080600084815260200190815260200160002060000160008373ffffffffffffffffffffffffffffffffffffffff1673ffffffffffffffffffffffffffffffffffffffff16815260200190815260200160002060006101000a81548160ff021916908315150217905550610bb0610b26565b73ffffffffffffffffffffffffffffffffffffffff168173ffffffffffffffffffffffffffffffffffffffff16837ff6391f5c32d9c69d2a47ea670b442974b53935d1edc7fd64eb21e047a839171b60405160405180910390a45b5050565b610c1982826104c1565b610ca857610c3e8173ffffffffffffffffffffffffffffffffffffffff166014610cac565b610c4c8360001c6020610cac565b604051602001610c5d9291906114e6565b6040516020818303038152906040526040517f08c379a0000000000000000000000000000000000000000000000000000000008152600401610c9f919061156a565b60405180910390fd5b5050565b606060006002836002610cbf919061158c565b610cc991906112c8565b67ffffffffffffffff811115610ce257610ce16115e6565b5b6040519080825280601f01601f191660200182016040528015610d145781602001600182028036833780820191505090505b5090507f300000000000000000000000000000000000000000000000000000000000000081600081518110610d4c57610d4b611615565b5b60200101907effffffffffffffffffffffffffffffffffffffffffffffffffffffffffffff1916908160001a9053507f780000000000000000000000000000000000000000000000000000000000000081600181518110610db057610daf611615565b5b60200101907effffffffffffffffffffffffffffffffffffffffffffffffffffffffffffff1916908160001a90535060006001846002610df0919061158c565b610dfa91906112c8565b90505b6001811115610e9a577f3031323334353637383961626364656600000000000000000000000000000000600f861660108110610e3c57610e3b611615565b5b1a60f81b828281518110610e5357610e52611615565b5b60200101907effffffffffffffffffffffffffffffffffffffffffffffffffffffffffffff1916908160001a905350600485901c945080610e9390611644565b9050610dfd565b5060008414610ede576040517f08c379a0000000000000000000000000000000000000000000000000000000008152600401610ed5906116ba565b60405180910390fd5b8091505092915050565b600080fd5b60007fffffffff0000000000000000000000000000000000000000000000000000000082169050919050565b610f2281610eed565b8114610f2d57600080fd5b50565b600081359050610f3f81610f19565b92915050565b600060208284031215610f5b57610f5a610ee8565b5b6000610f6984828501610f30565b91505092915050565b60008115159050919050565b610f8781610f72565b82525050565b6000602082019050610fa26000830184610f7e565b92915050565b6000819050919050565b610fbb81610fa8565b82525050565b6000602082019050610fd66000830184610fb2565b92915050565b6000819050919050565b610fef81610fdc565b82525050565b600060208201905061100a6000830184610fe6565b92915050565b61101981610fa8565b811461102457600080fd5b50565b60008135905061103681611010565b92915050565b60006020828403121561105257611051610ee8565b5b600061106084828501611027565b91505092915050565b600073ffffffffffffffffffffffffffffffffffffffff82169050919050565b600061109482611069565b9050919050565b6110a481611089565b81146110af57600080fd5b50565b6000813590506110c18161109b565b92915050565b600080604083850312156110de576110dd610ee8565b5b60006110ec85828601611027565b92505060206110fd858286016110b2565b9150509250929050565b61111081611089565b82525050565b600060208201905061112b6000830184611107565b92915050565b61113a81610fdc565b811461114557600080fd5b50565b60008135905061115781611131565b92915050565b60006020828403121561117357611172610ee8565b5b600061118184828501611148565b91505092915050565b600082825260208201905092915050565b7f416363657373436f6e74726f6c3a2063616e206f6e6c792072656e6f756e636560008201527f20726f6c657320666f722073656c660000000000000000000000000000000000602082015250565b60006111f7602f8361118a565b91506112028261119b565b604082019050919050565b60006020820190508181036000830152611226816111ea565b9050919050565b7f41677265656d656e742065787069726564000000000000000000000000000000600082015250565b600061126360118361118a565b915061126e8261122d565b602082019050919050565b6000602082019050818103600083015261129281611256565b9050919050565b7f4e487b7100000000000000000000000000000000000000000000000000000000600052601160045260246000fd5b60006112d382610fdc565b91506112de83610fdc565b9250827fffffffffffffffffffffffffffffffffffffffffffffffffffffffffffffffff0382111561131357611312611299565b5b828201905092915050565b60006040820190506113336000830185611107565b6113406020830184610fe6565b9392505050565b61135081610f72565b811461135b57600080fd5b50565b60008151905061136d81611347565b92915050565b60006020828403121561138957611388610ee8565b5b60006113978482850161135e565b91505092915050565b60006113ab82610fdc565b91506113b683610fdc565b9250828210156113c9576113c8611299565b5b828203905092915050565b600081905092915050565b7f416363657373436f6e74726f6c3a206163636f756e7420000000000000000000600082015250565b60006114156017836113d4565b9150611420826113df565b601782019050919050565b600081519050919050565b60005b83811015611454578082015181840152602081019050611439565b83811115611463576000848401525b50505050565b60006114748261142b565b61147e81856113d4565b935061148e818560208601611436565b80840191505092915050565b7f206973206d697373696e6720726f6c6520000000000000000000000000000000600082015250565b60006114d06011836113d4565b91506114db8261149a565b601182019050919050565b60006114f182611408565b91506114fd8285611469565b9150611508826114c3565b91506115148284611469565b91508190509392505050565b6000601f19601f8301169050919050565b600061153c8261142b565b611546818561118a565b9350611556818560208601611436565b61155f81611520565b840191505092915050565b600060208201905081810360008301526115848184611531565b905092915050565b600061159782610fdc565b91506115a283610fdc565b9250817fffffffffffffffffffffffffffffffffffffffffffffffffffffffffffffffff04831182151516156115db576115da611299565b5b828202905092915050565b7f4e487b7100000000000000000000000000000000000000000000000000000000600052604160045260246000fd5b7f4e487b7100000000000000000000000000000000000000000000000000000000600052603260045260246000fd5b600061164f82610fdc565b9150600082141561166357611662611299565b5b600182039050919050565b7f537472696e67733a20686578206c656e67746820696e73756666696369656e74600082015250565b60006116a460208361118a565b91506116af8261166e565b602082019050919050565b600060208201905081810360008301526116d381611697565b905091905056fea26469706673582212201c6a3726e34e761b31df455e1a7b83cf0adceb5b8f26050c199618a8e94db1a264736f6c63430008090033",
  "linkReferences": {},
  "deployedLinkReferences": {}
}